:020000040800F2
:100000008812002001010008E9370008BD2F000810
:10001000E5370008190B0008A5470008000000009C
:10002000000000000000000000000000653D000826
:10003000050D0008000000006D3B0008BD3F0008F2
:100040001B0100081B0100081B0100081B01000820
:100050001B0100081B0100081B0100081B01000810
:100060001B0100081B0100081B0100081B01000800
:100070001B010008C90C00081B0100081B01000837
:100080001B0100081B0100081B0100081B010008E0
:100090001B0100081B0100081B0100081B010008D0
:1000A0001B0100081B0100081B0100081B010008C0
:1000B0001B0100081B0100081B0100081B010008B0
:1000C0001B0100081B0100081B0100081B010008A0
:1000D0001B0100087147000881470008914700088C
:1000E0001B0100081B0100081B010008DFF80CD0F1
:1000F00000F0BEFB00480047915000088812002025
:100100000648804706480047FEE7FEE7FEE7FEE7B1
:10011000FEE7FEE7FEE7FEE7FEE7FEE741400008F8
:10012000ED000008D2B201E000F8012B491EFBD21D
:1001300070470022F6E710B513460A4604461946F2
:10014000FFF7F0FF204610BD421E12F8013F002BC2
:10015000FBD111F8013B02F8013B002BF9D17047AC
:1001600030B505462A460B4612F8010B13F8014B31
:1001700008B1A042F8D01CB1002802D06D1CF1E7F4
:10018000284630BDCAB2401E10F8011F8A4202D074
:100190000029F9D100207047421C10F8011B0029EA
:1001A000FBD1801A704770B5064605F03DFA046829
:1001B00005460A220021304600F045F92C6070BD4A
:1001C00030B480EA010202F0004530F0004221F034
:1001D000004013D090B1C30DD40DC2F31601C0F38B
:1001E0001600E41A41F4000140F400027D3491420B
:1001F00001D3641C00E04900002C02DA30BC00206E
:1002000070474FF400000023914201D3891A034341
:1002100040084FEA4101F7D151B1914202D14FF06C
:10022000004105E002D24FF0010101E06FF0010151
:1002300003EBC450284430BC00F03DB92DE9F04D2B
:1002400081EA030404F0004B21F0004514464FF00E
:10025000000A23F0004150EA050220D054EA0102CE
:100260001DD0C5F30A570246C5F31303C1F31300AB
:10027000C1F30A5640F4801543F48013A7EB060837
:10028000101BD64608F2FD3873EB050002D308F1C7
:10029000010801E092185B41B8F1000F03DA002079
:1002A0000146BDE8F08D00204FF4801106468446DB
:1002B0000EE0171B73EB050705D3121B63EB050359
:1002C00006434CEA010C49084FEA300092185B41A2
:1002D00050EA0107EDD152EA030012D082EA04008D
:1002E00083EA0501084305D0101BAB4106D2012269
:1002F000002306E000224FF0004302E06FF001020D
:1003000053101AEB06004CEB085110EB0A0041EBBE
:100310000B01BDE8F04D00F005B9C10F80EAE070B7
:100320000844CA079623002100F0CEB80EB5C10FCD
:1003300080EAE0700844CA07002140F233438DE8A8
:100340000E000A460B4600F0FCF803B000BD00F0BA
:10035000004220F00040C10DC0F3160040F4000040
:100360007F2901DA00207047962903DCC1F196014C
:10037000C84001E096398840002AF4D040427047D6
:1003800001F0004330B421F0004150EA010206D0F0
:100390000A0DA2F56072C1F31301002A02DC30BC21
:1003A00000207047440F44EAC104C100E01830BC8B
:1003B00000EBC25000F07FB830B50B46014600207C
:1003C0002022012409E021FA02F59D4205D303FA17
:1003D00002F5491B04FA02F52844151EA2F1010298
:1003E000F1DC30BD2DE9F05F0546002092469B46CA
:1003F00088460646814640241BE02846414647463B
:10040000224600F056FA53465A46C01A914110D37C
:1004100011461846224600F03DFA2D1A67EB0108F6
:100420004F4622460120002100F034FA17EB000964
:100430004E41201EA4F10104DFDC484631462A4625
:100440004346BDE8F09F2DE9F04791460F468046B0
:100450000446002614F8015B2DB100F04DFA006847
:10046000405DC007F6D12B2D02D02D2D18D0641E73
:100470004A463946204600F043FA27B13968A1427E
:1004800001D1C7F8008071054FF002040BD540423E
:10049000002803DD05F0C8F80460A007BDE8F08778
:1004A00046F48066E4E70028F8DA05F0BDF8046059
:1004B0006FF00040F2E70029A8BF7047401C4900D8
:1004C00008BF20F00100704710B4B0FA80FC00FAB9
:1004D0000CF050EA010404BF10BC704749B1CCF1E4
:1004E000200421FA04F411FA0CF118BF0121214370
:1004F0000843A3EB0C01CB1D4FEA00614FEA10202B
:1005000042BF002010BC704700EBC35010440029CC
:10051000A4BF10BC7047401C490008BF20F0010078
:1005200010BC704710B5141E73F1000408DA401CAB
:1005300041F1000192185B411A4301D120F0010002
:1005400010BD2DE9F04D92469B4611B1B1FA81F2F2
:1005500002E0B0FA80F22032904600F09BF90446A7
:100560000F4640EA0A0041EA0B0153465A46084347
:1005700013D0114653EA010019D0C8F14002504689
:1005800000F097F905460E4650465946424600F09F
:1005900081F9084305D0012004E020463946BDE832
:1005A000F08D0020054346EAE0762C4337430A9855
:1005B0006305E40AA0EB08000022FD0A44EA475460
:1005C0000A3002D500200146E9E70105101969410A
:1005D000DDE9084500196941BDE8F04DA2E72DE9C4
:1005E000FE4F804681EA0300C00F0C46009021F0C8
:1005F000004123F00045B8EB0200A94105D2404676
:10060000214690461C460B46024623F0004010430C
:1006100047D0270DC7F30A00C3F30A510290401ACE
:10062000019040286BDAC3F3130040F4801B00985C
:10063000924620B10023D2EB030A63EB0B0B019827
:100640005946C0F14002504600F024F906460D46D6
:1006500050465946019A00F03CF910EB0800614100
:10066000002487EA115284EAE7731A4340D0009AC3
:1006700062B3019A012A4FEA075215DC001B61EBB5
:1006800002014FF0004202EA0752CDE90042001C8D
:1006900041F5801132462B46FFF753FF03B0BDE80A
:1006A000F08F40462146F9E7001B61EB0201001C78
:1006B00041F5801300185B412018A2F5001747EBA5
:1006C000030140EAD570B6196D4111E06D084FEA9B
:1006D000360645EAC0754FEA0752001B61EB02017E
:1006E000001C41F5801149084FEA300000195141C2
:1006F00032462B4603B0BDE8F04FFFF713BF00981A
:10070000012240000023D0EB020263EBE07300986B
:1007100021464FEAE074B8EB000061EB0401E9E721
:1007200083F000435BE781F0004158E72DE9FE4F7D
:1007300081EA030404F0004421F0004100944FF0EA
:10074000000B23F0004350EA01045ED052EA030498
:100750005BD0C3F30A54C1F30A552C44A4F2F3341A
:100760000194A0FB0254C1F3130141F48011C3F3BF
:10077000130343F4801301FB024400FB034E840A7D
:10078000970A44EA815447EA8357A4FB0768029515
:100790008D0A05FB07854FEA932C04FB0C542705B3
:1007A000029D4FEA065847EA1637B5EB08056EEB8F
:1007B000070C870E920E47EA811742EA8312A7FBC5
:1007C0000201B6EB0B0164EB00042B0D43EA0C3382
:1007D0005E1844EB1C50DA465146E7FB0201C5F3B4
:1007E00013044FEA0B3343EA14534FEA0432019CDB
:1007F00043EA0603A4F10C040294009CCDE900B482
:10080000FFF79FFE03B0BDE8F08F00200146F9E737
:10081000C1F30A52C1F3130140F2FF3341F48011D6
:100820009A4202DA00200146704740F233439A426E
:10083000A2F2334202DC524200F03BB800F02AB888
:1008400030B5041E71F1000404DB4FF00044404257
:1008500064EB0101141E73F1000405DB1C464FF02C
:100860000043524263EB0403994208BF904230BDFB
:10087000064C074D06E0E06840F0010394E80700ED
:1008800098471034AC42F6D3FFF734FCDC6800081C
:10089000FC680008202A04DB203A00FA02F100205C
:1008A00070479140C2F1200320FA03F319439040AE
:1008B0007047202A04DB203A21FA02F00021704719
:1008C00021FA02F3D040C2F12002914008431946B8
:1008D0007047202A06DBCB17203A41FA02F043EAA0
:1008E000E07306E041FA02F3D040C2F120029140E9
:1008F000084319467047000000487047905F0008A1
:100900002DE9F05F82460078002715468B460AF1F4
:100910000104B946302801D09DB113E014F8010B51
:100920000127782803D0582801D045B10AE00DB13D
:10093000102D07D10027102514F8010B02E008251F
:1009400000E00A250026B0460EE005FB080005FB86
:1009500006F1012701EB10461FFA80F8B6F5803F3B
:1009600000D3B94614F8010B294600F018F8002806
:10097000EBDABBF1000F05D00FB1641E00E0544666
:10098000CBF80040B9F1000F06D004F04DFE022173
:100990000160C81EBDE8F09F48EA0640FAE73A2821
:1009A00000D2303820F02002412A01D3A2F13700D2
:1009B000884201D34FF0FF30704730B58C1810F8E3
:1009C000012B12F00F0301D110F8013B120906D1DF
:1009D00010F8012B03E010F8015B01F8015B5B1ECE
:1009E000F9D101E001F8013B521EFBD1A142E6D34F
:1009F000002030BDB0B5044600688168C90709D041
:100A0000816821F00101816000F042FF216889685E
:100A1000C90701D10020B0BD054603E02068806809
:100A2000C007F7D000F034FF401B0328F6D320683E
:100A30008068C007F2D0A06A40F01000A062E06AAF
:100A400040F00100E0620120B0BD0000B0B582B00E
:100A500004460020019021688A68D2073DD1886849
:100A600040F00100886040F24450C2F2000000688B
:100A70004DF68361C4F21B31A0FB0101880C00BF5D
:100A80000190019810B101980138F9E700F000FFDA
:100A900021688968C9071CD1054603E02068806881
:100AA000C00719D100F0F4FE401B0328F6D32068DC
:100AB0008068C007F2D1A06A40F01000A062E06A2E
:100AC00040F00100E062002084F82400012002B020
:100AD000B0BD002002B0B0BD002002B0B0BD00002B
:100AE00040F60030C2F20000002164224FF4AF63F0
:100AF0004FF01E0CC0E90011C0E90222C0E9043C1D
:100B0000C0E907117047000080B5FFF729FBB0FA74
:100B100080F0400980BD0000FEE7000080B584B091
:100B200001200090002001900320039040F6000077
:100B3000C4F20100694600F0A1FD04B080BD0000D0
:100B400080B584B00120CDE900000320039040F679
:100B50000000C4F20100694600F090FD04B080BDC1
:100B600070B540F60004C4F20104FFF7E9FF204627
:100B70000121002200F086FE122000F06BFD2046CD
:100B80000121012200F07EFE142000F0BDF8FFF7E5
:100B9000C5FF142000F0B8F82046012100F06CFEDB
:100BA00040F26055C2F20005A0BB2046012100F0D2
:100BB00063FE70B9002600BF012000F0A5F82046B2
:100BC000012100F059FE622E03D8002806F101062B
:100BD000F2D02046012100F04FFE01280DD1002661
:100BE000012000F091F82046012100F045FE622E20
:100BF00003D8012806F10106F2D04FF0FF3400BF00
:100C000000F016F829190134042C4870F8D132206C
:100C100000F07AF828786978AA78EB7808441044CC
:100C200029791844401AB0FA80F0400970BD0000DC
:100C30002DE9F04140F600040026C4F2010400272B
:100C40000BE000BFA8F10100B0FA80F0400940EAD3
:100C50004707072E06F1010632D22046012100F097
:100C60000BFE78B9002500BF012000F04DF82046AA
:100C7000012100F001FE622D04D8002805F10105D4
:100C8000F2D000BF282000F03FF82046012100F0FC
:100C9000F3FD80462046012100F0EEFD0128D1D170
:100CA000002500BF012000F02FF82046012100F0B0
:100CB000E3FD622DC6D8012805F10105F2D0C1E798
:100CC000F8B2BDE8F081000080B540F65C30C2F2B9
:100CD000000000F083FB80BDB0B5D0E900CED0E9C4
:100CE0000F40012505FA00F060600846CCF804309A
:100CF000BEF1100F04BF10460A46CCF80800CCF82D
:100D00000C20B0BD7047000070B540F6F434C2F25C
:100D1000000405464FF6FF76206885EA0601416229
:100D2000204601F0ABFB2DB1206800BF416A89B2BB
:100D3000B142FBD140F6F430C2F2000001F0CEFB2C
:100D400070BD0000EFF3108072B600BFFEE7000038
:100D5000F0B58DB06F460D46064638463221144632
:100D6000FFF7E7F909A00FA1002C08BF014638469C
:100D700032462B4604F044FC40F27450C2F20000AC
:100D80003946FFF7E1F90DB0F0BD00BF5C222573D5
:100D90005C223A7B5C2276616C75655C223A256444
:100DA0005C7D00005C2225735C223A7B5C227661CC
:100DB0006C75655C223A25645C7D5C2C000000004B
:100DC00080B500F02DF840F20471C2F20001086015
:100DD000FFF7A3FA0021C4F2D231FFF7F1F9FFF7D0
:100DE000B6FA40F6FC21C2F20001086080BD0000A6
:100DF00080B500F065F840F20471C2F200010860AD
:100E0000FFF78BFA0021C4F2D231FFF7D9F9FFF7CF
:100E10009EFA40F6FC21C2F20001086080BD00008D
:100E200070B540F6004440F67C65C4F20104C2F29D
:100E300000050020286020460121002200F022FD4C
:100E40002046022100F018FD0028F9D0182604E001
:100E50000120FFF759FF013E1FD06420FFF754FF28
:100E600020460121012200F00DFD28684000286085
:100E70000120FFF749FF20460121002200F002FD7A
:100E80000120FFF741FF2046022100F0F5FC002879
:100E9000DED0286801302860DAE7204601210122EF
:100EA00000F0F0FC286880F4000028600120FFF7C3
:100EB0002BFF20460121002200F0E4FC286870BDD1
:100EC00070B540F6000440F67C65C4F20104C2F23D
:100ED00000050020286020464FF40061002200F049
:100EE000D1FC00BF20464FF4805100F0C5FC002823
:100EF000F8D0182605E000BF0120FFF705FF013EEE
:100F000022D06420FFF700FF20464FF40061012249
:100F100000F0B8FC2868400028600120FFF7F4FECC
:100F200020464FF40061002200F0ACFC0120FFF7E6
:100F3000EBFE20464FF4805100F09EFC0028DBD0F1
:100F4000286801302860D7E720464FF4006101226D
:100F500000F098FC286880F4000028600120FFF76A
:100F6000D3FE20464FF40061002200F08BFC28687D
:100F700070BD0000B0B581B00022009290F824202E
:100F8000012A01D1022179E04A680123062A80F86A
:100F9000243005D803686FF0040C03F1340E0AE026
:100FA00003680C2A87BF03F12C0E6FF0400C03F18D
:100FB000300E6FF0220C02EB8202DEF80050624429
:100FC0001F230C68934025EA030304FA02F21A4334
:100FD000CEF80020D1F800E002680EEB4E05102498
:100FE000BEF1090F88BF1E3D88BF0C2452F804C013
:100FF00007238968AB402CEA0303A9401943115128
:101000002EF001014FF0000C10294FF0000133D1F8
:10101000016842F20042C4F20102914205D0816AA5
:1010200041F020018162012126E09268120222D45F
:101030008A68BEF1100F42F400028A601BD140F2B0
:101040004451C2F2000109684DF68362C4F21B32BA
:10105000A1FB0212910C01EB810149000091009962
:1010600049B100BF009901390091009900294FF062
:101070000001F7D100E0002180F824C0084601B04B
:10108000B0BD00000068C06C70470000002804BFBD
:1010900001207047F0B581B00746044657F8280F85
:1010A00030B90020E06284F82400204600F07AF88D
:1010B0002046FFF79FFCA26AA16A002808BF12F031
:1010C000100205D041F010010120396001B0F0BDDF
:1010D00041F2021291430231A162E169D4E9013285
:1010E00041EA0305511EB1FA81F149091346B2F5EF
:1010F000807F18BF0B02267D217B012E45EA410C23
:1011000011D141B1A16A41F02001A162E16A41F02F
:101110000101E16207E0A1694EF60006CFF6FF7615
:1011200006EB41310B432168B2F5807F4E6826F40F
:10113000694643EA06034B608B684FF2FD76CFF6B3
:10114000E17603EA060343EA0C038B6001D0012A2F
:1011500006D122690023CFF6F07303EB025200E0C0
:101160000022CB6A23F470031A43CA62896840F6EE
:10117000FE62CFF61F721140614506D10021E16287
:10118000A16A012262F301019FE7A06A40F010000A
:1011900020F00200A06254F82C0F40F00101012061
:1011A000274692E780B586B0014640F60000C4F2BB
:1011B0000100096800F5005291424FF00001CDE9AD
:1011C0000411CDE9021101D006B080BD41F2180131
:1011D000C4F202010A6842F480620A600A6802F4FA
:1011E00080620192019A0A6842F004020A6009686A
:1011F00001F004010191019902210291032103915F
:1012000002A900F03BFA06B080BD000010B504460C
:1012100090F82400012804BF022010BD012084F8AA
:1012200024002046FFF712FC18B1002184F8241096
:1012300010BD42F2044C2168A26AC4F2010C40F2D3
:1012400001339A430CF57F7E02F580727145A262EC
:1012500007D0A26A22F48012A2624A68520519D409
:101260001DE0DCF8002012F4702FF2D0A26A42F6E2
:101270000003C4F2010342F480129942A26205D035
:1012800042F20042C4F20102914208D1DCF800208F
:10129000520504D5A26A012363F30D32A262A36A48
:1012A0000022DB044FF0000344BFE36A23F006038F
:1012B000E36284F824206FF002020A608A6802F474
:1012C0006022B2F5602F0BD1714504D08A6842F4D8
:1012D000A0028A6010BDDCF8002012F4702FF5D057
:1012E0008A6842F480128A6010BD0000014690F8BE
:1012F0002100022813D10868D1E90FC3026822F047
:101300000E020260026822F001020260012000FA6F
:1013100003F2CCF8042081F82100002002E0042030
:1013200088630120002281F82020704780B590F862
:101330002110022923D10268116821F00E011160E9
:101340002F211368C4F202018A4240F20401C4F260
:10135000020123F00103136016DD3023C4F20203FF
:101360009A421DD04423C4F202039A421BD0582350
:10137000C4F202039A421BD14FF4803320E00421CF
:1013800081630121084680BD0823C4F202039A420A
:101390000CD01C23C4F202039A4209D110230FE09F
:1013A0004FF480730CE04FF4805309E0012307E011
:1013B00001F1680C4FF08073624508BF4FF4801351
:1013C0000B60012180F82110426B002180F8201071
:1013D0000AB190470021084680BD000010B50168A1
:1013E000D0E90FCEDCF800200B685C0726D504247A
:1013F00004FA0EF4144021D00A68920603D40A6855
:1014000022F004020A602F22C4F20202914240F24A
:101410000402C4F2020259DD3023C4F202039942ED
:101420006CD04423C4F2020399426AD05823C4F218
:10143000020399426AD14FF480236FE09C0729D5BB
:10144000022404FA0EF4144024D00A68920606D44A
:101450000A6822F00A020A60012280F821202F2265
:10146000C4F20202914240F20402C4F2020239DDE7
:101470003023C4F20203994256D04423C4F202033B
:10148000994254D05823C4F20203994254D14FF4E4
:10149000003359E01B0758BF10BD082303FA0EF3B1
:1014A0001A4012D00A6822F00E020A60012101FAE5
:1014B0000EF2CCF80420816380F82110016B002229
:1014C000002980F8202018BF884710BD0823C4F2E7
:1014D0000203994218D01C23C4F20203994215D189
:1014E00040231BE00823C4F20203994222D01C23AC
:1014F000C4F2020399421FD1202325E04FF48063F8
:101500000CE04FF4804309E0042307E002F1680493
:101510004FF08063A14208BF4FF480031360C16A9B
:101520000029D2D0884710BD4FF400730CE04FF46F
:10153000005309E0022307E002F168044FF0007352
:10154000A14208BF4FF400131360816A00220029F2
:1015500080F82020B9D0884710BD0000014600283F
:101560004FF0010008BF70472DE9F043D1F800C0EB
:101570004FF6F873CBF6FD734CF6CD426344CCF6D0
:10158000CC42A3FB02236FF0030707EA9303002773
:10159000C4F2020701F10C09C1E90F730223D1E97A
:1015A000012E99E87002D1F81C8081F82130DCF816
:1015B000003043F6F077BB431A4342EA0E0222435F
:1015C0002A43324342EA090242EA0802CCF80020E8
:1015D00000228A6381F8210081F820200020BDE8E4
:1015E000F043704710B5044690F82000012820D041
:1015F000012084F8200094F82100012816D102204F
:1016000084F821000020A063D4F800C0DCF80000BA
:1016100020F00100CCF800002046FFF75DFB2068B9
:10162000E26A01683AB141F00E010AE0002084F854
:101630002000022010BD21F004010160016841F08A
:101640000A0101602068016841F001010160002089
:1016500010BD0000B0B5044600F01AF9054640F28E
:101660004C50C2F200000078611C18BF044400BF57
:1016700000F00EF9401BA042FAD3B0BD2DE9F04FA7
:1016800082B00E68002E00F0F38041F20042C4F2F6
:101690000102042340F2004E904208BF03234FF69C
:1016A000FF7CC4F2010E009300240123C1F2100C50
:1016B0004FF0000A4FF0000941E0012504F00C034F
:1016C0000F279F402BEA070705FA03F33B4342F835
:1016D00026304E6840F20C45F202DEF8082054BF76
:1016E00022EA080242EA0802C4F20105CEF8082004
:1016F0002A68B30254BF22EA080242EA08022A60BA
:10170000B303DEF8042054BF22EA080242EA0802CA
:10171000F303CEF80420DEF800204FF0010354BF9D
:1017200022EA080242EA0802CEF800200E680AF116
:10173000010A36FA0AF204F1040400F0998003FA6F
:101740000AFB16EA0B08F1D04A68624510DC122A3F
:1017500050D8DFE802F0330A41454F4F4F4F4F4F0B
:101760004F4F4F4F4F4F4F484C00D1F80C9041E036
:101770004FF6FF75C1F22105AA420FDC0025C1F228
:101780001105AA421AD00025C1F21205AA4215D0AD
:101790000025C1F22105AA4210D02BE00025C1F29C
:1017A0002205AA420AD00025C1F23105AA4205D07D
:1017B0000025C1F23205AA421CD100BF8A6842B19D
:1017C000012A14BFC0F814B0C0F810B04FF00809D7
:1017D00010E04FF004090DE0CA6802F1080909E0C1
:1017E0004FF0000906E0CA6802F1040902E0CA6885
:1017F00002F10C0922460546B8F5807F24BF203A45
:1018000004352E680F279740BE4309FA02F232438F
:101810002A60CA79D2067FF589AF41F21803C4F273
:1018200002031A684FEA9A0642F001021A601A6827
:1018300040F6000302F001020192019AAEF57E72B9
:1018400052F826B0C4F2010398420FD040F600438C
:10185000C4F2010398423FF430AF41F20003C4F2F6
:101860000103009D984208BF022527E7002525E7D0
:1018700002B0BDE8F08F00008068084018BF01206A
:1018800070470000002A08BF09040161704700008A
:1018900040F67860C2F2000000687047F0B581B091
:1018A000B0B3044690F83D0028B9002084F83C000D
:1018B000204600F05BF9242084F83D002068016890
:1018C00021F001010160016841F4004101600168FB
:1018D00021F40041016000F045FB48F28041C0F274
:1018E0001E0140F60012656888424FF00001C0F208
:1018F0003D0248F2A16C4FF0000338BF0121904235
:10190000C0F2010C38BF0123654538BF0B4613B147
:10191000012001B0F0BD4DF68361C4F21B31A0FB84
:10192000011221684FEA924E4B684FF4967623F0ED
:101930003F0343EA92434B6044F6D3530F6A0EFBD6
:1019400006F6C1F26203A6FB033627F03F03B70990
:10195000654538BF970C7A1C1A430A62CA6948F277
:10196000A0674CF6FF73C0F20107BD4222EA030CE8
:101970000AD801386A00B0FBF2F001306FF31F3073
:10198000042898BF04202BE0A368A0F1010E9BB1AE
:1019900019206843BEFBF0F00422013062F31F30CF
:1019A000000512D09BB119206843BEFBF0F0042261
:1019B000013062F31F3011E005EB4500BEFBF0F093
:1019C00001306FF31F300005ECD1012008E005EB7A
:1019D0004500BEFBF0F001306FF31F3040F40040D3
:1019E00040EA0C00C8610868D4E9072320F0C00071
:1019F000104318430860886848F2FF3204F10C076E
:101A000090438CCF18431043A6698860C86820F0C3
:101A1000FF0038433043C860086840F001000860A8
:101A200000202021206484F83D10206384F83E00CB
:101A300001B0F0BD2DE9F04782B01E461746894639
:101A40000446FFF725FF94F83D1020290ED102210E
:101A50000546C0F21001204601221923009501F02D
:101A600055FB18B994F83C00012803D1022002B0BC
:101A7000BDE8F0870121206884F83C100168DDF89A
:101A80002880C90703D1016841F0010101600168A4
:101A90004FF0000A21F400610160212084F83D002C
:101AA000102084F83E00C4F840A067626685608D0F
:101AB000494620850020CFF6FF70E062204642466E
:101AC0002B4601F095FA18B1012002B0BDE8F0876D
:101AD000CDF804A0206841690191806901900198C6
:101AE00006E000BF204641462A4601F0D9FA20BB55
:101AF000208D58B3204641462A4601F09DFBE0B9AF
:101B0000606A2168024612F8013B0B616262628DD5
:101B1000013A6285228D571E27854B693F0418BF05
:101B200013F00403DED0437802300B616062608DF5
:101B300001386085901E2085D4E7206C0428C3D12D
:101B40002068016841F400710160BDE72068016808
:101B500041F400710160202084F83D00002084F8E9
:101B60003E0084F83C0002B0BDE8F08710B586B0B6
:101B7000016845F20040C4F2000081424FF00001CC
:101B8000CDE90411CDE9021101D006B010BD41F23A
:101B90001804C4F20204216800F5384041F008013D
:101BA0002160216801F0080101910199C021029191
:101BB000122103910321059102A9FFF75FFD6068DF
:101BC00040F400106060606800F40010019001981B
:101BD00006B010BD40F24C5040F67861C2F20000F1
:101BE000C2F2000100780A681044086070470000E3
:101BF00080B542F20000C4F20200016841F0100119
:101C00000160032000F066F80F2000F005F800F0F6
:101C10002BF8002080BD0000B0B540F24C52C2F25B
:101C2000000240F244511278C2F200014FF47A737C
:101C30000968B3FBF2F20446B1FBF2F1084600F08A
:101C40006BFB0F2C4FF001050CD858B94FF0FF304B
:101C500021460022002500F02DF840F25050C2F23B
:101C6000000004602846B0BD82B041F21800C4F202
:101C700002000168022241F001010160016801F0E7
:101C8000010101910199416841F080514160406832
:101C900000F08050009000980420C4F20100016818
:101CA00062F31A61016002B07047000080B503F072
:101CB000B5F980BD70B514460D46064603F0BEF971
:101CC0002946224601F092FD0146304603F0BEF956
:101CD00070BD000080B503F0CBF980BD2DE9F04167
:101CE00082B00446007841F21C06C007C4F2020626
:101CF0004AD0306810F0805808D1306840F08050E9
:101D00003060306800F080500190019847F2000781
:101D1000C4F200073868C00512D4386840F48070F7
:101D20003860FFF7B5FD05463868C00508D4FFF7F1
:101D3000AFFD401B6428F7D9032002B0BDE8F08155
:101D4000706810F4407012D0616801F440718842EC
:101D50000DD0706840F24042C4F24222012320F4C8
:101D6000407113600023C0071360716029D170684F
:101D7000616820F440700843B8F1000F706003D12F
:101D8000306820F0805030602068810707D556F811
:101D9000181CA26821F44041114346F8181CC006E3
:101DA00003D4002002B0BDE8F08156F8180CE168B9
:101DB00020F48000084346F8180C002002B0BDE86B
:101DC000F081FFF765FD054641F2883770688007AE
:101DD000CDD4FFF75DFD401BB8424FF00300F5D9AD
:101DE000ECE700002DE9F04381B0002800F0898085
:101DF00042F20008C4F202080446D8F800000D467A
:101E000000F0070088420CD2D8F8000020F007004C
:101E10002843C8F80000D8F8000000F00700A842E6
:101E20006FD1206841F204098107C4F2020917D575
:101E3000410705D5D9F8001041F4E061C9F8001058
:101E4000010705D5D9F8001041F46051C9F8001018
:101E5000D9F80010A26821F0F0011143C9F8001070
:101E6000C00745D1D8F8000000F00700A8420CD9FF
:101E7000D8F8000020F007002843C8F80000D8F880
:101E8000000000F00700A8423BD12068410707D5B9
:101E9000D9F80010E26821F4E0611143C9F800109C
:101EA000000708D5D9F80000216920F4605040EA05
:101EB000C100C9F8000000F079F8D9F8001045F623
:101EC0009472C1F30311C0F60002515C40F2445217
:101ED00020FA01F140F25050C2F200000068C2F254
:101EE00000021160FFF798FE002001B0BDE8F0830A
:101EF0006068022809D0012829D159F8041C8903F7
:101F000007D4012001B0BDE8F08359F8041C890111
:101F1000F7D5D9F8001021F003010843C9F80000F3
:101F2000FFF7B6FC064641F2883700BFD9F800003B
:101F3000616800F00C00B0EB810F93D0FFF7A8FCB4
:101F4000801BB842F2D9032001B0BDE8F08359F8F4
:101F5000041C8907D5D5DCE740F24450C2F20000EA
:101F60000068704780B5FFF7F7FF41F20401C4F243
:101F70000201096845F6A472C1F30221C0F600020D
:101F8000515CC84080BD000080B5FFF7E5FF41F21D
:101F90000401C4F20201096845F6A472C1F3C2212A
:101FA000C0F60002515CC84080BD000041F2040C44
:101FB000C4F2020CDCF8003003F00C00082841F2F7
:101FC0000020C0F27A0018BF7047C3F383420AA111
:101FD0008A5CD90305D440F60010C0F23D0050439E
:101FE0007047DCF8001008A3C1F34041595C50432E
:101FF000B0FBF1F0704700BF0203040506070809B3
:102000000A0B0C0D0E0F1010010200002DE9F0411B
:1020100082B0002800F0C4800446007841F2000637
:10202000C007C4F2020643D0706800F00C00042818
:1020300017D0706800F00C00082802D17068C00347
:102040000FD465682DB1B5F5A02F10D0B5F5803F40
:1020500011D0306820F480303060306820F4802067
:102060000CE03068800323D5606808BB98E03068D6
:1020700040F480203060306840F480303060FFF7FA
:1020800007FC002D054610D03068800310D4FFF700
:10209000FFFB401B6428F7D904E100BFFFF7F8FB02
:1020A000401B64284FF0030077D830688003F5D4D4
:1020B0002078800718D5706810F00C0F07D0706872
:1020C00000F00C00082826D17068C00323D43068C3
:1020D000800702D52069012862D13068616920F04B
:1020E000F80040EAC1003060207800073DD5A069C3
:1020F00038B30020C4F242200121C0F88014FFF759
:10210000C7FB0546706A80072DD4FFF7C1FB401B53
:102110000228F7D9C6E02069002840F20000C4F286
:10212000422000F0968001210160FFF7B1FB0546D7
:1021300030688007D1D4FFF7ABFB401B0228F7D9EA
:10214000B0E00020C4F242200021C0F88014FFF764
:102150009FFB0546706A800707D5FFF799FB401B78
:102160000228F7D99EE001F003FD207840071BD438
:10217000E5698DB1706800F00C00082847D1012D89
:102180000ED07068216A00F480328A4208D1616AF8
:1021900000F47010884203D1002002B0BDE8F08145
:1021A000012002B0BDE8F081F06910F0805808D13C
:1021B000F06940F08050F061F06900F080500190CB
:1021C000019847F20007C4F200073868C00510D430
:1021D000386840F480703860FFF75AFB054600BF4E
:1021E0003868C00505D4FFF753FB401B6428F7D9B6
:1021F00058E0E5681DB1052D3CD0012D3ED0306A78
:1022000020F001003062306A20F0040039E000273D
:10221000C4F2422700203866FFF73AFB022D05463C
:102220000CD100BF3068800154D5FFF731FB401B53
:1022300002284FF00300F5D9AFE700BF30688001F6
:10224000AAD5FFF725FB401B02284FF00300F5D964
:10225000A3E700210160FFF71BFB054630688007FC
:102260007FF542AFFFF714FB401B02284FF003003D
:10227000F4D992E7306A40F004003062306A40F0EE
:1022800001003062FFF704FB002D054641F288375C
:1022900014D000BF306A800713D4FFF7F9FA401B4F
:1022A000B842F7D9032002B0BDE8F081FFF7F0FA99
:1022B000401BB8424FF003003FF66FAF306A800713
:1022C000F4D4B8F1000F7FF453AFF06920F08050E0
:1022D000F0614DE7206AB0F5803F05D17168A268D2
:1022E00021F40031114371607168626A21F4741144
:1022F00010430843706001203866FFF7C9FA0446AE
:10230000306880013FF548AFFFF7C2FA001B022892
:102310004FF00300F4D940E780B501F037FE80BDEF
:1023200010B590F83C20012A4FF0020231D0012371
:1023300080F83C3080F83D200268D2F804E0D2F802
:1023400008C00C682EF07003234340F2FF74C4F2FF
:102350000004A242536005DCB2F1804F0ED040F27F
:10236000004307E042F60043C4F201039A4205D05D
:1023700040F60003C4F200039A4204D149682CF0ED
:102380008003194391600121002280F83D1080F8FC
:102390003C20104610BD0000002804BF01207047FB
:1023A00010B5044690F83D0028B9002084F83C00A0
:1023B000204600F01FF8022084F83D002068211D0F
:1023C00001F040FE012084F8460084F83E0084F8C5
:1023D0003F0084F8400084F8410084F8420084F80B
:1023E000430084F8440084F8450084F83D00002050
:1023F00010BD000083B0006840F20041C4F200014B
:1024000088421DD040F60001C4F20001884226D067
:1024100042F60041C4F2010188422DD141F21C0074
:10242000C4F2020050F8041C41F4006140F8041C9E
:1024300050F8040C00F400600290029803B070475A
:1024400041F21C00C4F20200016841F00201016087
:10245000006800F002000190019803B0704741F25B
:102460001C00C4F20200016841F004010160006830
:1024700000F004000090009803B0704790F83D1001
:1024800001291CBF01207047022180F83D1000681F
:1024900040F2FF71C4F20001884205DCB0F1804FC8
:1024A0000ED040F2004107E042F60041C4F20101C3
:1024B000884205D040F60001C4F20001884206D1EE
:1024C000816801F00701062904BF002070470168F8
:1024D00041F00101016000207047000001460068E2
:1024E00041F21113026A1A4208D1026A40F24443CF
:1024F0001A4203D1026822F0010202600122002088
:1025000081F83D207047000010B5044690F83C006B
:1025100001284FF0020008BF10BD012284F83C20C2
:1025200084F83D0020684FF6777382689A43826092
:102530000A684F2A0FDC1F2A22DD202A23D0302AE6
:1025400021D0402A4DD14B68CA68194601F0AAFE35
:10255000206840213BE06F2A17DDB2F5005F20D0F4
:10256000B2F5805F2AD0702A3BD1D1E9012CCB682B
:10257000614601F0C7FD2068816841F077011AE0EB
:102580000AB1102A2DD1114621E0502A18D0602A14
:1025900027D14B68CA68194601F096FE2068602171
:1025A00015E0D1E9012CCB68614601F0ABFD206854
:1025B000816841F48041816000200BE0002009E047
:1025C0004B68CA68194601F06DFE2068502101F081
:1025D000A5FD0020012184F83D10002184F83C1065
:1025E00010BD0120F6E7000080B586B0006840F617
:1025F0000001C4F2000188424FF00001CDE904114E
:10260000CDE902112ED040F20041C4F2000188420F
:1026100042D141F21800C4F20200016841F0080101
:102620000160006802A900F00800019001981020E4
:10263000029002200390059040F60040C4F2010091
:10264000FFF71CF80420C4F2010001684FF2FF32CA
:10265000CFF6FF02114041F0E06141F400610160FA
:1026600006B080BD41F21800C4F20200016841F0DA
:1026700008010160006802A900F0080001900198BB
:102680004FF48070029002200390059040F60040C5
:10269000C4F20100FEF7F2FF06B080BDB0B50446FB
:1026A00090F83C00012804BF0220B0BD0D464FEA5F
:1026B000B2010120032984F83C0037D8DFE801F09B
:1026C000020A12222068294601F030FD206850F8E5
:1026D000181F0EE02068294601F058FD206850F8C8
:1026E000181F16E02068294601F084FD206850F884
:1026F0001C1F41F008010160016821F00401016024
:1027000029690FE02068294601F0A6FD206850F8ED
:102710001C1F41F400610160016821F480610160C7
:10272000296909020268114301600020002184F830
:102730003C10B0BD002804BF0120704710B504460E
:1027400090F83D0028B9002084F83C00204600F0B5
:102750001FF8022084F83D002068211D01F072FC62
:10276000012084F8460084F83E0084F83F0084F895
:10277000400084F8410084F8420084F8430084F863
:10278000440084F8450084F83D00002010BD00009E
:1027900070470000B0B5044641B1082909D00429AA
:1027A00014BF04F1410004F13F0004E004F13E00D5
:1027B00001E004F14000007801281CBF0120B0BDF9
:1027C000022041B1082909D0042914BF84F841002E
:1027D00084F83F0004E084F83E0001E084F8400003
:1027E000206842F644450122C4F2010501F078FC5C
:1027F0002068A5F14401884203D1296841F40041D1
:10280000296040F2FF71C4F20001884205DCB0F19A
:10281000804F0ED040F2004107E042F60041C4F282
:102820000101884205D040F60001C4F2000188424F
:1028300006D1816801F00701062904BF0020B0BD60
:10284000016841F0010101600020B0BD70B504468F
:10285000006842F6004600220D46C4F2010601F06F
:102860003FFC2068B0420DD1316A41F21112114291
:1028700008D1016A40F24442114203D1416C21F473
:1028800000414164016A41F21112114208D1016A0A
:1028900040F24442114203D1016821F0010101607C
:1028A0000120082D09D0042D0BD0002D14BF84F871
:1028B000410084F83E00002070BD84F840000020F4
:1028C00070BD84F83F00002070BD0000704700001C
:1028D00010B504460068406994F84110212915D1CB
:1028E00010F0800012D000BF206850E8050F21686A
:1028F00020F0800041E80502002AF5D1A06B0028F5
:1029000018BFFEF7F3FC204601F0A4FD20684069E3
:1029100094F84210222915D110F0400012D000BFC7
:10292000206850E8050F216820F0400041E80502CA
:10293000002AF5D1E06B002818BFFEF7D7FC20462F
:1029400001F054FD002010BD70470000B0B582B00A
:10295000036804461868D9685A6900F02F05202DCD
:1029600001F0200505D125B1204601F081FD02B01E
:10297000B0BD5FEA007C1EBF02F0010E01F4907250
:1029800012EB0E024AD1226B0840C1063DD5012A46
:102990003BD100200190186801905868019001987F
:1029A0005869400642D4A08DE18DE28D002A1CBFFB
:1029B000401A5FEA004101D102B0B0BD216851E880
:1029C000031F226821F4907142E80313002BF5D114
:1029D000216851E8051F226821F0010142E8051332
:1029E000002BF5D1202184F842100021216300BF83
:1029F000216851E8031F226821F0100142E8031307
:102A0000002BF5D10221616354E0010658D4400641
:102A1000D2D5204601F012FD02B0B0BDC20718BFEA
:102A200011F4807251D1420755D45BE0E06B01682C
:102A300049688AB2002ABFD0A38D9A42BCD2E185F0
:102A40008069202831D000BF206850E8030F21683A
:102A500020F4807041E80302002AF5D1206850E894
:102A6000050F216820F0010041E80502002AF5D198
:102A7000206850E8050F216820F0400041E8050279
:102A8000002AF5D1202084F842000020206300BFF6
:102A9000206850E8030F216820F0100041E803028D
:102AA000002AF5D1E06BFEF721FC02206063A08DC7
:102AB000E18D401A81B22046FFF708FF02B0B0BD99
:102AC000204601F0E7FD02B0B0BD626C42F00102A9
:102AD0006264420706D5BEF1000F03D0626C42F07B
:102AE00002026264820706D5BEF1000F03D0626C59
:102AF00042F004026264BCF1000F06D55EEA0502F2
:102B000003D0626C42F008026264626C002A3FF4F7
:102B100053AF0840800602D5204601F0A9FC20688A
:102B20004069616C00F0400001F00801401827D0B6
:102B3000204601F05BFC2068406940061BD500BFC1
:102B4000206850E8050F216820F0400041E80502A8
:102B5000002AF5D1E06B70B144F2ED21C0F600011E
:102B60004163FEF7E3FB00283FF426AFE06B416BC7
:102B7000884702B0B0BD2046FFF7E6FE02B0B0BD08
:102B80002046FFF7E1FE0020606402B0B0BD000007
:102B9000002804BF0120704710B5044690F841009A
:102BA00028B9002084F84000204600F021F82420B5
:102BB00084F841002068C16821F40051C1602046BA
:102BC00001F0BAFC2068016921F49041016141697A
:102BD00021F02A014161C16841F40051C160002027
:102BE0002021606484F8411084F84210606310BDB5
:102BF000F0B585B00446006844F20041C4F200011B
:102C0000002688420496CDE9026601963ED044F63D
:102C10000001C4F20001884267D043F60001C4F20B
:102C20000101884240F0B58041F21800C4F2020070
:102C3000016840F6000441F4804101600168C4F27B
:102C4000010401F4804100910099016801AD41F057
:102C5000040101600068294600F00400009000981B
:102C60004FF400700190022002900320049020464F
:102C7000FEF704FD4FF4806001900020CDE90200D2
:102C800020462946FEF7FAFC25247AE041F2180096
:102C9000C4F20200416840F6000441F40031416092
:102CA0004168C4F2010401F4003100910099016807
:102CB00001AD41F0040101600068294600F0040004
:102CC00000900098042001900220029003200490BC
:102CD0002046FEF7D3FC0820CDE901062046294610
:102CE0000396FEF7CBFC26244BE041F21800C4F219
:102CF0000200416801AE41F480214160416801F465
:102D0000802100910099016841F00801016000688C
:102D1000314600F00800009000984FF48060019068
:102D2000022002900320049040F60000C4F201004B
:102D300000F580652846FEF7A1FC4FF40060019085
:102D4000002728463146CDE90277FEF797FC40F68A
:102D50005C353020C2F20005C4F202008021C5E9D2
:102D600000072846C5E90271C5E90477C5E9067779
:102D7000FEF7F4FB002818BFFDF7E4FFE5636C6283
:102D80002724204600210022FEF794FF2046FEF76C
:102D90008DFF05B0F0BD00002DE9F041044690F82C
:102DA000420020281CBF0220BDE8F0810E46002909
:102DB0004FF0010049D01746002A08BFBDE8F08156
:102DC0004FF0000822201D46C4F8448084F84200D9
:102DD000C4F83080FEF75CFDA785E785A16807464B
:102DE000B1F5805F10D12069002814BF3046B0468D
:102DF000064609E02068002640686FF35F2028F847
:102E0000020BE08D0138E085E08DD0B12046202115
:102E10003A462B4601F068FCC8B9002EEAD0A068FB
:102E2000B0F5805F08D008B9206928B120684068F3
:102E300000F07F0002E000BF2068406806F8010B48
:102E4000DFE7202084F842000020BDE8F081202048
:102E500084F842000320BDE8F081000010B590F82E
:102E60004230202B1CBF022010BD00294FF001046E
:102E700018BF002A01D1204610BD0024046301F0D0
:102E8000A3FB204610BD000010B590F84230202B67
:102E90001CBF022010BD00294FF0010418BF002AFA
:102EA00001D1204610BD0024046301F0D9FB204667
:102EB00010BD000080B5006844F20041C4F200017A
:102EC000884218BF80BD40F6A450C2F200000078CE
:102ED000302803D0312807D1012000E0002040F243
:102EE0004851C2F20001086040F6145040F6A45167
:102EF000C2F20000C2F200010122FFF7C5FF80BD4F
:102F0000704700002DE9F041044690F84100202868
:102F10001CBF0220BDE8F0810E4600294FF00100E1
:102F200042D01746002A08BFBDE8F0814FF00008E4
:102F300021201D46C4F8448084F84100FEF7A8FC17
:102F4000A784E784A1680746B1F5805F0DD12069A9
:102F5000002814BF3046B046064606E016F8010BBE
:102F600021684860E08C0138E084E08C80B1204624
:102F700080213A462B4601F0B7FBB8B9002EEDD1BF
:102F800038F8020B21686FF35F2048600026E9E7FC
:102F9000204640213A462B4601F0A6FB202184F82A
:102FA0004110002818BF0320BDE8F081202084F8DC
:102FB00041000320BDE8F08170470000FEE70000FB
:102FC0000268516949054FF000010FD56FF4806325
:102FD00053612022016380F83D2080F83E10026C8E
:102FE00042F00402026480F83C1001210846704758
:102FF0002DE9F04182B00446C06A1D46164610F520
:10300000803F0F4618BF012823D12068016841F492
:103010008071016020464FF0011100223346009577
:1030200000F074F850B120680068C00544BF4FF448
:1030300000702064032002B0BDE8F081206940F2F6
:103040000208B0F5804FC0F2010808D107F0FE0079
:1030500018E00828D9D0206B1228D6D0DAE706204D
:1030600000EAD7102168F030086108F10601204617
:1030700032462B4600F094F818B1012002B0BDE8AA
:10308000F081F8B2216832460861204641462B465D
:1030900000F086F8002818BF012002B0BDE8F081DA
:1030A000F0B581B004460068406940071AD415465F
:1030B0000E464F1C08E000BF20684069400714D549
:1030C0002068406940070DD42046FFF779FFC8B952
:1030D000002FF5D0FEF7DCFB002EEDD0401BB042F8
:1030E000EED9E9E7002001B0F0BD002020212063E7
:1030F00084F83D1084F83E00216C41F020012164E9
:1031000084F83C00012001B0F0BD00002DE9F0473B
:10311000DDF8208099461646044601F47F078DB2FB
:1031200003F1010A0EE000BF2068B7F5803F14BF2D
:103130001830143000682840401BB0FA80F0400975
:10314000B0421DD02068B7F5803F14BF183014304E
:1031500000682840401BB0FA80F04009B0420CD112
:10316000BAF1000FEED0FEF793FBB9F1000FDBD000
:10317000A0EB08004845E5D9D6E70020BDE8F08778
:1031800000202021206384F83D1084F83E00216C4B
:1031900041F02001216484F83C000120BDE8F08763
:1031A0002DE9F04104460068984643698FB203EA6E
:1031B0000701B94202D10020BDE8F081416949050B
:1031C00017D41646551C00BF5DB1FEF761FB1EB15A
:1031D000A0EB0800B04204D9206840693840B842EA
:1031E0001ED1206841693940B942E4D0416949059E
:1031F000EAD5016841F4007101606FF480614161BA
:1032000000202021206384F83D1084F83E00216CCA
:1032100041F00401216484F83C000120BDE8F08104
:1032200000202021206384F83D1084F83E00216CAA
:1032300041F02001EEE70000F0B581B004460068DF
:10324000406900061AD415460E464F1C08E000BF20
:1032500020684069000614D52068406900060DD436
:103260002046FFF7ADFEC8B9002FF5D0FEF710FBE2
:10327000002EEDD0401BB042EED9E9E7002001B0AE
:10328000F0BD00202021206384F83D1084F83E002A
:10329000216C41F02001216484F83C00012001B040
:1032A000F0BD0000F0B581B040F20C71C2F2000137
:1032B00048B101280ED10878002804BF0820087002
:1032C0000878013805E00878421CD0B2083818BFE9
:1032D000104608700C78072C40D801222546264657
:1032E000DFE804F02504090E13181C210025012233
:1032F000012400261BE0012400220025002616E000
:10330000012400220125002611E0012500220024CD
:1033100000260CE001250022002407E001260022FF
:103320000024002503E0002401220025012640F6A8
:103330000007C4F2010738461021FEF7A3FA384609
:1033400020212246FEF79EFA384640212A46FEF703
:1033500099FA384680213246FEF794FA01B0F0BD62
:1033600010B584B040F62C3042F600020021C2F2C3
:103370000000C4F201024FF4602301240391CDE95F
:10338000011101730175C361C0E90021816004610D
:10339000FDF77CFE002818BFFDF7D4FC0720039042
:1033A00040F62C30C2F2000001A9CDE90144FDF73E
:1033B000E1FD002818BFFDF7C5FC04B010BD0000FA
:1033C00080B582B041F21400C4F20200016800220C
:1033D00041F0010101600068002100F0010001904E
:1033E00001980D20FEF766FC0D20FEF75FFC02B091
:1033F00080BD00002DE9F04786B0002741F218009B
:10340000CDE90477CDE90277C4F20200016840F605
:10341000000941F0100101600168C4F2010901F0E6
:103420001001019101990168002241F02001016021
:10343000016801F0200101910199016841F0040146
:103440000160016801F0040101910199016841F0F6
:103450000801016000684FF40F6100F0080001905E
:1034600001984846FEF70EFA09F5806528464FF2A6
:10347000210100224FF22108FEF704FA48464FF4DA
:10348000807101224FF0010AFEF7FCF94FF41F6032
:1034900002AECDE9020A022448463146049705945B
:1034A000FEF7ECF828463146CDE9028ACDE90474EE
:1034B000FEF7E4F828463146CDE902470497FEF7C7
:1034C000DDF84FF48050CDE90207484631460497B5
:1034D000FEF7D4F806B0BDE8F087000080B540F6EE
:1034E000A03045F20041C2F20000C4F2000148F2EF
:1034F000A06200234FF4804CC0F2010280E80E006D
:10350000C0E9033CC0E90533C0E90733FEF7C6F95B
:10351000002818BFFDF716FC80BD000080B586B0FE
:1035200040F6F43042F600420021C2F20000C4F23C
:10353000010247234FF6FF7CCDE90411CDE90211CA
:10354000CDE90011C0E90023C0E9021CC0E9041163
:103550008161FEF721FF002818BFFDF7F3FB4FF450
:103560008050029040F6F430C2F2000002A9FEF74B
:10357000CBFF002818BFFDF7E5FB0020CDE90000D8
:1035800040F6F430C2F200006946FEF7C9FE00289A
:1035900018BFFDF7D7FB06B080BD000010B58EB098
:1035A00040F63C400021C2F2000040F20042642498
:1035B0000D91CDE90B11CDE90911CDE90711CDE947
:1035C0000511CDE90311CDE90111C4F20002472331
:1035D000C0E9021401618021C0E900238161FEF786
:1035E000DBFE002818BFFDF7ADFB4FF480500A90BA
:1035F00040F63C40C2F200000AA9FEF785FF002811
:1036000018BFFDF79FFB40F63C40C2F20000FFF7F9
:1036100091F8002818BFFDF795FB40F63C400024C8
:10362000C2F2000008A9CDE90844FEF779FE00289F
:1036300018BFFDF787FB602001903220CDE902041E
:1036400040F63C40C2F2000001A900220594FFF7B9
:1036500025F8002818BFFDF775FB40F63C40C2F284
:103660000000FEF7C1FF0EB010BD000010B58EB017
:1036700040F684400021C2F2000040F600026424BB
:103680000D91CDE90B11CDE90911CDE90711CDE976
:103690000511CDE90311CDE90111C4F20002472360
:1036A000C0E9021401618021C0E900238161FEF7B5
:1036B00073FE002818BFFDF745FB4FF480500A90B9
:1036C00040F68440C2F200000AA9FEF71DFF002860
:1036D00018BFFDF737FB40F68440C2F20000FFF749
:1036E00029F8002818BFFDF72DFB40F68440002480
:1036F000C2F2000008A9CDE90844FEF711FE002837
:1037000018BFFDF71FFB602001903220CDE90204B5
:1037100040F68440C2F2000001A908220594FEF799
:10372000BDFF002818BFFDF70DFB40F68440C2F234
:103730000000FEF759FF0EB010BD000080B540F646
:10374000CC4043F60001C2F20000C4F201010023A4
:103750004FF00C0C4FF4E13280E80E00C0E9033367
:10376000C0E905C3C361FFF713FA002818BFFDF7CE
:10377000E9FA80BD80B540F6145044F20041C2F22F
:103780000000C4F2000100234FF00C0C4FF4E132B2
:1037900080E80E00C0E90333C0E905C3C361FFF749
:1037A000F7F9002818BFFDF7CDFA80BD80B540F6C7
:1037B0005C5044F60001C2F20000C4F20001002394
:1037C0004FF00C0C4FF4E13280E80E00C0E90333F7
:1037D000C0E905C3C361FFF7DBF9002818BFFDF797
:1037E000B1FA80BDFEE70000FEE7000000F0070030
:1037F00080F00703042B28BF04234FF0FF3C03385D
:103800000CFA03F338BF0020994381400CFA00F012
:1038100022EA000008437047B0B5002404F1B0006C
:103820000021002500F070F90020002100F06CF963
:103830001020002100F068F90020012100F064F957
:10384000681C45B2B5F1FF3FF6DC0134082C08BF17
:10385000B0BDE3E780B5AE20002100F055F90020AF
:10386000002100F051F91020002100F04DF9402016
:10387000002100F049F9B020002100F045F9812035
:10388000002100F041F9FF20002100F03DF9A120C6
:10389000002100F039F9A620002100F035F9A82018
:1038A000002100F031F93F20002100F02DF9C8205F
:1038B000002100F029F9D320002100F025F9002093
:1038C000002100F021F9D520002100F01DF9802011
:1038D000002100F019F9D820002100F015F9052089
:1038E000002100F011F9D920002100F00DF9F1209C
:1038F000002100F009F9DA20002100F005F912207A
:10390000002100F001F9DB20002100F0FDF830205B
:10391000002100F0F9F88D20002100F0F5F81420C6
:10392000002100F0F1F8AF20002100F0EDF880BD9B
:1039300010B5044601F1B000002100F0E5F82009BF
:103940001030002100F0E0F804F00F00002100F03A
:10395000DBF810BDF0B581B016460D460446FFF702
:10396000E7FF40F20400C2F2000000EB86164FF0C1
:10397000FF3700BFF0194078012100F0C5F801378A
:103980000F2FF7D1681CC1B22046FFF7D1FF1F24CB
:1039900030194078012100F0B7F801342F2CF7D10D
:1039A00001B0F0BDF0B581B00D46044640B200282C
:1039B00044BF02350024E9B220461E46A2F120078A
:1039C000FFF7B6FF102EF8B220D146F2D411C0F6A0
:1039D000000101EB00164FF0FF3700BFF0194078EF
:1039E000012100F091F80137072FF7D1681CC1B20F
:1039F0002046FFF79DFFF41D082500BF14F8010FB6
:103A0000012100F081F8013DF8D111E045F6AC71DB
:103A100000EB4000C0F6000101EB40044FF0FF3521
:103A200060194078012100F06FF80135052DF7D1BC
:103A300001B0F0BD2DE9F04F81B0002B41D0074619
:103A40000A981C4692468B46591E450800264FF0A0
:103A500000094FF00008009111E000BF4FF001098C
:103A600005FB067140F03002C8B2D2B259460A9B3B
:103A7000FFF798FF0136B44208F1010821D06FEA40
:103A800008002044C1B20A2001F08CFCBAFBF0F01F
:103A90004CF6CD41CCF6CC41A0FB0112D10801EB94
:103AA0008101B9F1000FA0EB4100D9D10099B142D9
:103AB000D6DD0028D2D105FB06705946C0B22022BF
:103AC000D5E701B0BDE8F08F2DE9F0411546127839
:103AD000002A08BFBDE8F08198460E46074600243C
:103AE000F8B2F1B2D2B24346FFF75CFF0837F8B242
:103AF00001347828E0B288BF02362A5C88BF0027EC
:103B0000002AEDD1BDE8F08180B5C0B211B101F05D
:103B10006DFA80BD01F052FA80BD000010B501F0D1
:103B200005F900F041FE01F09BF801F031F800F0DA
:103B300059FF00F0DFFE00F0BDFF01F057F901F082
:103B4000C3F9FCF7CDFF40F65C54C2F2000440F22A
:103B50001071C2F200012046C822FFF77FF92068E9
:103B6000C16841F01001C16010BD00007047000045
:103B700081B040F24450C2F20000006844F6D351D4
:103B8000C1F26201A0FB0101480A009000BF009849
:103B9000411E00280091F9D101B0704710B586B0E0
:103BA0000446FCF7F9FA82B240F6CC40C2F20000BB
:103BB00021464FF40073FFF7A5F93EA12046FCF71C
:103BC000CFFA002872D13DA12046FCF7C9FAB8B15E
:103BD0003A21FCF7D7FA0130FCF7E5FA024640F645
:103BE0000030C2F2000001ACC26037A1204601F0F3
:103BF00007FD1920072122460823FFF765FF55E03E
:103C000034A12046FCF7ACFAB8B13A21FCF7BAFA75
:103C10000130FCF7C8FA024640F60030C2F200005C
:103C200001AC82602EA1204601F0EAFC00200621B2
:103C300022460823FFF748FF38E02CA12046FCF776
:103C40008FFAB8B13A21FCF79DFA0130FCF7ABFAD4
:103C5000024640F60030C2F2000001AC026125A12C
:103C6000204601F0CDFC4820062122460823FFF71C
:103C70002BFF1BE021A12046FCF772FAB0B13A21DC
:103C8000FCF780FA0130FCF78EFA024640F600306D
:103C9000C2F2000001AC42611AA1204601F0B0FC62
:103CA0005320072122460823FFF70EFF002006B00D
:103CB00010BD00BF706F7374000000004361745F3B
:103CC000466F6F645F4600006466463A25642020B4
:103CD00000000000646F67466F6F645F460000007D
:103CE0006366463A25642020000000005761746531
:103CF000725F460077463A256420200074656D7037
:103D00005F66000074463A256420202020200000D1
:103D1000B0B582B040F65C50C2F2000000680168A5
:103D2000C9061DD500210191016840F65C5401913E
:103D30004068C2F20004019001982046FEF7C8FDD9
:103D400040F21075C2F200052846FFF727FF28460B
:103D5000C821FCF7EEF920462946C822FFF77EF875
:103D600002B0B0BD70470000B0B540F66814C2F2B2
:103D7000000420464FF4C871FCF7DBF946F66701F2
:103D800046F6530246F66103C0F60001C0F6000293
:103D9000C0F60003204601F033FC40F27455C2F235
:103DA000000520462946FCF7CFF9FCF7F5F947F660
:103DB0007D52C2F622422118225042F63040C0F60F
:103DC000305048600A20088128464FF4C871FCF73B
:103DD000B0F92046FCF7E0F982B240F65C50C2F23E
:103DE0000000214640F6B833FFF78CF8B0BD000064
:103DF00070B540F6F824C2F200042078022838BFDB
:103E000070BD40F62830C2F2000001682FA00122E8
:103E1000FCF79EFF40F60035C2F20005296A46F223
:103E2000C870C0F600000122FCF792FF40F25C501F
:103E3000C2F20000016827A00122FCF789FF40F2CE
:103E40006C50C2F20000016824A00122FCF780FF40
:103E5000E96946F2C470C0F6000000220026FCF7B3
:103E600077FFFFF781FF3220FDF7F4FBA9681DA063
:103E70000122FCF76DFFE9681DA00122FCF768FF35
:103E800040F68060C2F2000001681CA00122FCF72D
:103E90005FFF29691BA00022FCF75AFFFFF764FFB0
:103EA0003220FDF7D7FB40F26050C2F2000081786B
:103EB00016A00122FCF74CFF696916A00022FCF74E
:103EC00047FFFFF751FF267070BD00BF4665656470
:103ED00000000000466F6F6400000000646F6746DA
:103EE0006F6F64004361745F466F6F645F460000EC
:103EF000646F67466F6F645F4600000057617465CA
:103F00007200000057617465725F460074656D70E1
:103F10000000000074656D705F660000B0B5800140
:103F20000C46FCF703FA48F20003C4F21603002221
:103F3000FCF784F9FCF724FAFCF709FA0128B8BF6A
:103F4000B0BD05462046FFF7ADF90220FDF782FB24
:103F5000013DF7D1B0BD000010B540F60004C4F239
:103F60000104204610210022FDF78CFC2046202170
:103F70000022FDF787FC204640210022FDF782FC4D
:103F8000204680210022FDF77DFC10BDB0B5013830
:103F90000024B4EB106F1CBF0120B0BD4EF2100521
:103FA000CEF2000568604FF0FF300F2101F04EF8AF
:103FB0000720AC6028602046B0BD000080B5FDF74A
:103FC00009FE80BD70B594B00AAC20462821FCF7EC
:103FD000B0F801200A900E904FF4E01000254FF445
:103FE00080310226139020460995CDE90755CDE989
:103FF0000555CDE90355CDE90155CDE90B15CDE9C1
:104000001161FEF703F8C0B90F20CDE905064FF4A2
:104010008060CDE9080505A802210795FDF7E2FEBD
:1040200058B9022001904FF44040039001A8FDF7D9
:1040300055FE002804BF14B070BDFCF783FE0000DD
:104040007047000010B540F2FF7E0368C4F2000E16
:1040500042F6004C7045C4F2010C05DCB0F1804F13
:104060000AD040F2004203E0604505D040F600026D
:10407000C4F20002904203D14A6823F07003134354
:10408000704505DCB0F1804F0AD040F2004203E0F9
:10409000604505D040F60002C4F20002904203D110
:1040A000CA6823F44073134323F080024B69D1F8AC
:1040B00000E08C681A4360450260C462C0F828E0E2
:1040C00002D10969CCF83010012141610169C907A9
:1040D00008BF10BD016921F00101016110BD0000A0
:1040E00080B501F01F014FF0010CD0F820E00CFA70
:1040F00001F32EEA03030362036A02FA01F1194392
:10410000016280BDD0F808C011432CF47F4C41EA15
:10411000032141EA0C01816070470000826822F0AF
:104120007002114341F0070181607047B0B5026A27
:10413000036A42F6004423F001030362D0F804E06E
:10414000D0F818C08B6822F00202C4F20104A04229
:1041500042EA030205D1CB6822F00C0223F00403EB
:104160001A430B68A04207D1D1E905452EF4407EE1
:1041700044EA0E0444EA050E2CF073052B43C0F804
:1041800004E08361496841630262B0BDB0B5026A70
:10419000036A42F6004423F010030362D0F804E0FF
:1041A000D0F818C08B6822F02002C4F20104A042AB
:1041B00042EA031207D1CB686FF0400522F0C0023B
:1041C00005EA03131A430B68A04207D1D1E905455C
:1041D0002EF4406E4EEA840444EA850E2CF4E64543
:1041E00045EA0323C0F804E0836149688163026201
:1041F000B0BD0000B0B5026A036A42F6004423F481
:1042000080730362D0F804E0D0F81CC08B6822F4FD
:104210000072C4F20104A04242EA032207D1CB6833
:1042200040F2FF451B0222F44062AB431A430B6885
:10423000A04207D1D1E905452EF4405E4EEA0414B0
:1042400044EA051E2CF073052B43C0F804E0C3615B
:104250004968C1630262B0BDB0B5D0F820C0026A3F
:1042600042F6004522F4805202624268C3690C683B
:10427000D1F808E0C4F20105A84204D14D6922F446
:10428000804242EA851223F4E64343EA0423426073
:10429000C3612CF40055496845EA0E32016402629C
:1042A000B0BD0000D0F820C0036A23F00103036210
:1042B000836923F0F00343EA02122CF00A03194346
:1042C0008261016270470000D0F820C0036A23F0C9
:1042D00010030362836923F4704343EA02322CF033
:1042E000A00343EA011182610162704780B5406A10
:1042F0000021C185C184FEF727FB80BD10B5446A4B
:104300002068406994F84110212907D110F08000FD
:1043100004D00020E084204600F09CF8206840692A
:1043200094F84210222907D110F0400004D0002058
:10433000E085204600F05AF8606C40F010006064A0
:104340002046FEF701FB10BD80B50168406A096890
:1043500089062FD40021C185016851E8031F026836
:1043600021F4807142E80313002BF5D1016851E874
:10437000051F026821F0010142E80513002BF5D169
:10438000016851E8051F026821F0400142E8051369
:10439000002BF5D1202180F84210016B012909D1B1
:1043A000016851E8031F026821F0100142E803137D
:1043B000002BF5D100214163016B012903D1818DCF
:1043C000FEF784FA80BDFEF775FD80BD80B5406ABA
:1043D00001214163016B012904D1818D4908FEF758
:1043E00075FA80BDFEF78CFD80BD0000016851E8C4
:1043F000031F026821F4907142E80313002BF5D1EA
:10440000016851E8051F026821F0010142E8051327
:10441000002BF5D1016B01290AD100BF016851E8D9
:10442000031F026821F0100142E80313002BF5D1AD
:10443000202180F8421000210163704780B5016897
:10444000CA6822F04002CA60202180F84110FEF7BD
:10445000B3FD80BD016851E8031F026821F0C0016F
:1044600042E80313002BF5D1202180F8411070475A
:1044700080B582B090F8421022291ED18268B2F530
:10448000805F02D1016900294AD0816AB2F5805F5C
:1044900007D00AB9026922B10268526802F07F02AD
:1044A00001E0026852680A700121826A1144816247
:1044B000C18D01390A04C18501D002B080BD0168F7
:1044C000CA6822F02002CA60CA6822F48072CA60F8
:1044D0004A6922F001024A61202180F8421000213D
:1044E0004163026B012A23D1016300BF016851E8D7
:1044F000031F026821F0100142E80313002BF5D1DD
:1045000001680A68D20606D5002201920A68019263
:10451000496801910199818DFEF7D8F902B080BDFB
:104520000168826A49686FF35F2111800221BCE74C
:10453000FEF7C0FC02B080BD10B504460068D4E9A7
:1045400002C22369016921F440511143016161698B
:1045500043EA0C021143C26841F20C639A431143CF
:10456000C1604169A26921F44071114343F6000220
:10457000C4F201029042416102D0FDF7F3FC01E078
:10458000FDF702FD6268192148439100B0FBF1F08C
:1045900048F21F51C5F2EB11A0FB01235A096FF03D
:1045A000630302FB0300322303EB0010A0FB0101B5
:1045B000F02303EA5113206803EB0212C1F3431105
:1045C0001144816010BD000070B582B01346002513
:1045D0000446816283854564222084F842000A46AD
:1045E0002168E06B44F2493C44F2CD3E44F2FD26A2
:1045F000C0F6000CC0F6000EC0F600060431C0E99B
:104600000ACEC0E90C65FCF7EDFF01952068016852
:104610000191406801900198206948B1206850E8F4
:10462000030F216840F4807041E80302002AF5D1AD
:10463000206850E8050F216840F0010041E80502BC
:10464000002AF5D1206850E8050F216840F04000AD
:1046500041E80502002AF5D1002002B070BD00003B
:10466000816200218285C2854164222180F8421046
:10467000016921B10168CA6842F48072CA600168A8
:10468000486940F001004861C86840F020020020FD
:10469000CA60704790F84110212923D18168B1F593
:1046A000805F01D1016931B1016A02684B1C03626C
:1046B0000978516007E0016A036831F8022B6FF353
:1046C0005F225A600162C18C01390A04C18418BF9B
:1046D00070470068C16821F08001C160C16841F085
:1046E0004001C160704700002DE9F04182B00446EE
:1046F000006800680840884203D1002002B0BDE88D
:10470000F0811D460E4690465F1C04E0206800685C
:104710003040B04228D0002FF8D0FDF7B9F801465C
:104720004FF003000DB3A1EB0801A9421DD820688A
:10473000C1684907EAD5402EE8D0802EE6D001684E
:104740000907E3D5002501950168019140680190B2
:1047500001982046FFF74AFE0820606484F8405024
:10476000012002B0BDE8F081002002B0BDE8F08178
:1047700080B540F6CC40C2F20000FEF7E7F880BDFD
:1047800080B540F61450C2F20000FEF7DFF880BD9D
:1047900080B5FFF7BDFA40F65C50C2F20000FEF7AC
:1047A000D5F880BDFEE700002DE9F04740F6681A15
:1047B000C2F2000A0AF1050040F28B11FBF7B9FCC6
:1047C00000208AF8040045F2414040F2D87540F6D6
:1047D0005C5646F65E0840F6CC49C0F60D2005242E
:1047E000C2F20005C2F20006C0F60008C2F20009DB
:1047F000CAF8000028464FF4C871FBF79AFC5046EF
:10480000FBF7CAFC82B2304651464FF4FA73FEF70A
:1048100079FB304629460A224FF4FA63FEF7BCFAC8
:1048200028464146FCF770F90746484629460A22C1
:10483000C823FEF767FB27B12006A4F10104D9D1F4
:10484000FF240AF1070040F28911FBF772FC40F6E1
:104850003050C0F20A00CAF8030045F2414040F26D
:10486000D87540F65C5646F65E0840F6CC49C3F271
:104870004500C2F20005C2F20006C0F60008C2F20E
:104880000009CAF8000000BF28464FF4C871FBF7C2
:1048900050FC5046FBF780FC82B2304651464FF444
:1048A000FA73FEF72FFB304629460D224FF4FA63C8
:1048B000FEF772FA28464146FCF726F907464846B5
:1048C00029460D224FF4FA73FEF71CFB200603D095
:1048D000002FA4F10104D7D1012F18BFBDE8F08744
:1048E00040F27050C2F20000017801310170BDE861
:1048F000F08700002DE9F04782B040F6681AC2F256
:10490000000A50464FF4C871FBF713FC46F2D57706
:1049100046F6610246F65303C0F6000726A1C0F62C
:104920000002C0F600035046009700F069FE40F216
:10493000D87540F65C5646F65E0840F6CC4905242C
:10494000C2F20005C2F20006C0F60008C2F2000979
:1049500028464FF4C871FBF7ECFB5046FBF71CFCF4
:1049600082B2304651464FF4FA73FEF7CBFA304626
:104970002946062240F6B833FEF70EFA284641468D
:10498000FCF7C2F807464846294606224FF4FA7358
:10499000FEF7B8FA200603D0002FA4F10104D7D106
:1049A000012F06D140F27050C2F2000001780131AF
:1049B000017002B0BDE8F08741542B4D515454555D
:1049C0005345524346473D302C312C222573222C2F
:1049D000222573222C222573222C302C302C2222CB
:1049E0000D0A00002DE9F04740F6681AC2F2000AED
:1049F00050464FF4C871FBF79CFB46F2CC72C0F6F0
:104A0000000226A15046134600F0FAFD40F2D87588
:104A100040F65C5646F65E0840F6CC490524C2F2E4
:104A20000005C2F20006C0F60008C2F2000900BF8D
:104A300028464FF4C871FBF77CFB5046FBF7ACFBF4
:104A400082B2304651464FF4FA73FEF75BFA3046B5
:104A50002946342241F28833FEF79EF92846414622
:104A6000FCF752F807464846294634224FF4FA73B9
:104A7000FEF748FA200603D0002FA4F10104D7D195
:104A8000012F18BFBDE8F08740F27050C2F200005D
:104A9000017801310170BDE8F08700BF41542B431C
:104AA000574A41503D222573222C222573220D0A9C
:104AB000000000002DE9F04740F6681AC2F2000A33
:104AC0000AF1270040F26911FBF733FB46F6B40008
:104AD000C0F6000090E88E00D0E90465D0E9064CED
:104AE0008AE88E00016ACAE90465CAE907C190F83C
:104AF0002610808C40F2D87540F65C5646F65E086B
:104B000040F6CC49CAF818400524C2F20005C2F2AA
:104B10000006C0F60008C2F200098AF82610AAF8BA
:104B2000240000BF28464FF4C871FBF702FB504633
:104B3000FBF732FB82B2304651464FF4FA73FEF770
:104B4000E1F9304629463B2240F6B833FEF724F916
:104B500028464146FBF7D8FF0746484629463B22F0
:104B60004FF4FA73FEF7CEF9200603D0002FA4F11C
:104B70000104D7D1012F18BFBDE8F08740F2705073
:104B8000C2F20000017801310170BDE8F087000039
:104B90002DE9F04740F6681AC2F2000A0AF1100047
:104BA0004FF4C071FBF7C5FA40F6315043F650514F
:104BB00044F2574245F2414340F2D87540F65C5604
:104BC00046F65E0840F6CC49C0F20A00C2F6314112
:104BD000C4F24832C4F22B330524C2F20005C2F2FB
:104BE0000006C0F60008C2F20009CAE90032CAE9AC
:104BF000021000BF28464FF4C871FBF79AFA5046DE
:104C0000FBF7CAFA82B2304651464FF4FA73FEF708
:104C100079F93046294606224FF4FA63FEF7BCF8CC
:104C200028464146FBF770FF0746484629460622BC
:104C30004FF4FA73FEF766F9200603D0002FA4F1B3
:104C40000104D7D1012F18BFBDE8F08740F27050A2
:104C5000C2F20000017801310170BDE8F087000068
:104C60002DE9F04740F6681AC2F2000A0AF10E0078
:104C70004FF4C171FBF75DFA0A20AAF80C0043F665
:104C8000455044F6575145F2414240F2D87540F63E
:104C90005C5646F65E0840F6CC49C0F63150C4F288
:104CA0004F41C4F22B320524C2F20005C2F20006C5
:104CB000C0F60008C2F20009CAE90021CAF80800DB
:104CC00028464FF4C871FBF734FA5046FBF764FAF4
:104CD00082B2304651464FF4FA73FEF713F930466C
:104CE000294606224FF4FA63FEF756F82846414655
:104CF000FBF70AFF07464846294606224FF4FA7397
:104D0000FEF700F9200603D0002FA4F10104D7D14B
:104D1000012F18BFBDE8F08740F27050C2F20000CA
:104D2000017801310170BDE8F08700002DE9F047FE
:104D300040F6681AC2F2000A0AF1090040F287112F
:104D4000FBF7F7F900208AF8080045F2534045F2D6
:104D5000414140F2D87540F65C5646F65E0840F692
:104D6000CC49C0F60D20C5F22B210524C2F2000566
:104D7000C2F20006C0F60008C2F20009CAE900103B
:104D800028464FF4C871FBF7D4F95046FBF704FAF4
:104D900082B2304651464FF4FA73FEF7B3F830460C
:104DA00029460E224FF4FA63FDF7F6FF28464146E6
:104DB000FBF7AAFE0746484629460E224FF4FA732F
:104DC000FEF7A0F8200603D0002FA4F10104D7D1EC
:104DD000012F18BFBDE8F08740F27050C2F200000A
:104DE000017801310170BDE8F08700002DE9F0473E
:104DF00040F6681AC2F2000A50464FF4C871FBF739
:104E000098F946F6530246F6610327A1C0F6000260
:104E1000C0F60003504600F0F3FB40F2D87540F6B0
:104E20005C5646F65E0840F6CC490524C2F2000501
:104E3000C2F20006C0F60008C2F2000928464FF48C
:104E4000C871FBF776F95046FBF7A6F982B23046F7
:104E500051464FF4FA73FEF755F830462946312291
:104E600040F6B833FDF798FF28464146FBF74CFE65
:104E700007464846294631224FF4FA73FEF742F8B6
:104E8000200603D0002FA4F10104D7D1012F18BFB1
:104E9000BDE8F08740F27050C2F2000001780131A5
:104EA0000170BDE8F08700BF41542B4D515454535D
:104EB00055423D302C22247379732F25732F25738F
:104EC0002F23222C300D0A002DE9F04740F6681AF6
:104ED000C2F2000A50464FF4C871FBF72AF946F6B1
:104EE000530246F6610327A1C0F60002C0F6000394
:104EF000504600F085FB40F2D87540F65C5646F609
:104F00005E0840F6CC490524C2F20005C2F2000654
:104F1000C0F60008C2F2000928464FF4C871FBF73A
:104F200008F95046FBF738F982B2304651464FF443
:104F3000FA73FDF7E7FF30462946062240F6B833FC
:104F4000FDF72AFF28464146FBF7DEFD07464846A7
:104F5000294606224FF4FA73FDF7D4FF200603D04A
:104F6000002FA4F10104D7D1012F18BFBDE8F087AD
:104F700040F27050C2F20000017801310170BDE8CA
:104F8000F08700BF41542B4D5154545355423D308E
:104F90002C22247379732F25732F25732F7468693E
:104FA0006E672F70726F70657274792F706F737483
:104FB0002F7265706C79222C310D0A0080B582B099
:104FC00000218DF8070040F6A0308DF806104FF054
:104FD000640CC2F200000DF1060278210223CDF824
:104FE00000C0FCF727FD02B080BD000080B582B094
:104FF00040218DF8070040F6A0308DF806104FF0E4
:10500000640CC2F200000DF1060278210223CDF8F3
:1050100000C0FCF70FFD02B080BD0000002848BFB3
:10502000704700F01F01012202FA01F14EF2001256
:105030004009CEF2000242F8201070474EF60C50A4
:10504000CEF200000068C0F3022070474EF6145301
:1050500000F00F02CEF2000309011A4400F1604390
:10506000B0F1FF3FC8BF03F5644211707047000004
:105070004EF60C51CEF200010A684FF6FF031A40BB
:1050800060F30A2242F0806040F0FD7008607047D3
:1050900040F60004C4F20104FCF7AAFDFEF792FFFB
:1050A000FEF7A8F9FEF78CF9FEF75AF9FEF716FAA3
:1050B000FEF744FBFEF732FAFEF778FBFEF7D6FA6E
:1050C000FEF76CFAFEF756FB40F6145040F6A4517A
:1050D000C2F20000C2F200010122FDF7D5FEFBF78B
:1050E00087FE40F25851C2F200010860FBF768FEEB
:1050F00040F26851C2F200010860FEF7ABFBFEF718
:105100008BFBA5A2002002211023FEF7DDFCFBF79C
:10511000E7FCFEF703FDFEF77FFB40F6F82A40F2BE
:105120005C5640F26C5940F62C3540F6806740F6EC
:105130000038C2F2000A40F2366BC2F20006C2F238
:105140000009C2F20005C2F20007C2F2000818E02E
:1051500004F5806020210122FCF794FB012040F23D
:105160000871C2F20001086040F26053C2F200030D
:105170003068D9F800103A689B7800F0BDF9FEF766
:1051800037FE9AF8000001308AF80000FBF730FE85
:1051900040F25851C2F200010968401A5845D8BF80
:1051A000584646F26761A0F23660C6F2666180FB3F
:1051B0000101881000EBD1703060FBF701FE40F276
:1051C0006851C2F200010968401A4CF6CD4120EA4C
:1051D000E070CCF6CC41A0FB0101C808C9F8000082
:1051E000FBF7BEFC10B16420FCF734FA2846FCF74C
:1051F0000DF82846FBF746FF48F21F51C5F2EB11A8
:10520000A0FB01012820A0EB511040F2485138606A
:10521000C2F20001086868B30868012850D1012073
:10522000C8F81C000020C8F8200020464FF4807108
:105230000022FCF727FB46F2C47200200721C0F6CB
:1052400000020823FEF740FC20464FF48071002244
:10525000FCF718FB1420FCF7FDF93868D8F810109B
:10526000884259D240F63C40C2F200000021FDF7CE
:1052700091FA58E00020C8F81C000120C8F820006E
:1052800020464FF480710022FCF7FCFA46F2C87207
:1052900000200721C0F600020823FEF715FC1420A9
:1052A000FCF7D8F93868D8F8101088421AD240F6BE
:1052B0003C40C2F200000021FDF76CFA19E000BF8B
:1052C00040F68440C2F200000821FDF7BFFAFEF765
:1052D00043FE00F0F3F804F5806020210022FCF783
:1052E000D1FA41E740F63C40C2F200000021FDF750
:1052F000ADFA20464FF480710122FCF7C3FA306802
:10530000D8F80810884204D20A200121FEF706FED0
:1053100019E0FEF721FE27E040F63C40C2F2000013
:105320000021FDF793FA20464FF480710122FCF72B
:10533000A9FAD9F80000D8F80C10884212D232200D
:10534000012100F09DF840F62430C2F20000007800
:1053500080B940F62831C2F20001086801300860C7
:10536000012002E000F0AAF8002040F62431C2F249
:105370000001087040F26050C2F200008078D8F856
:1053800014108142FFF4E4AE04F580602021002275
:10539000FCF778FA0020E2E657616974696E672EBF
:1053A0002E2E2E00002904BF012070470246012046
:1053B00001390B0602FB00F0FAD17047F0B581B05D
:1053C00040F6AE51C2F2000148B101280ED1087872
:1053D000002804BF082008700878013805E0087824
:1053E000421CD0B2083818BF104608700C78072C41
:1053F00044D8012225462646DFE804F02504090E9C
:1054000013181C2100250122012400261BE0012481
:1054100000220025002616E0012400220125002696
:1054200011E001250022002400260CE001250022C5
:10543000002407E0012600220024002503E00024C8
:1054400001220025012640F60047C4F20107384634
:105450004FF48051FCF716FA38464FF400512246BB
:10546000FCF710FA38464FF480412A46FCF70AFA56
:1054700038464FF400413246FCF704FA01B0F0BD63
:10548000B0B580010C46FAF751FF48F20003C4F2B0
:1054900016030022FAF7D2FEFAF772FFFAF757FF67
:1054A0000128B8BFB0BD05462046FFF787FF0220A0
:1054B000FCF7D0F8013DF7D1B0BD000010B540F6C3
:1054C0000044C4F2010420464FF480510022FCF74E
:1054D000D9F920464FF400510022FCF7D3F92046B9
:1054E0004FF480410022FCF7CDF920464FF40041F3
:1054F0000022FCF7C7F910BD2DE9F04182B040F65B
:10550000AF57C2F2000715460E46024635A138468F
:105510001C4600F075F8002000213A4610234FF099
:105520001008FEF7D1FA40F61367C2F2000730A167
:105530003846324600F064F83F2000213A461023F6
:10554000FEF7C2FA002002210B22FEF703FA122016
:1055500002210C22FEF7FEF9242002210522FEF78B
:10556000F9F9362002210622FEF7F4F9482002213B
:105570000422FEF7EFF94F2002212A460423CDF83A
:105580000080FEF757FA1DA26E2002211023FEF7BD
:105590009BFA002004210922FEF7DCF912200421E5
:1055A0000A22FEF7D7F9242004210722FEF7D2F9B8
:1055B000362004210822FEF7CDF9482004210422D8
:1055C000FEF7C8F94E20042122460423CDF80080BE
:1055D000FEF730FA6E2004211022FEF7BBF902B06C
:1055E000BDE8F08143773A20256467202000000061
:1055F00044773A2025646720200000006D6D00008C
:105600000FB4084B10B504A902AA039800F0E2F801
:10561000044602A9002000F074FC204610BC5DF88E
:1056200014FB0000035F00080048704700000020E2
:1056300002E008C8121F08C1002AFAD1704770475B
:10564000002001E001C1121F002AFBD170470000B9
:105650002DE9FF5F82B00021DDE90430020DDDF8A5
:1056600040B0034318D044F61050A2F2FF32424338
:105670001514119801281FD0A5EB0B00401C5FEA00
:10568000000A4FF000064E4FDFF83891B046504602
:1056900015D5CAF1000413E0119801244AA301288A
:1056A00001D16FEA0B010298119AC0E90031C0E9FB
:1056B000024206B0BDE8F09FCBF10000DFE70446F0
:1056C0000021404A491842EB0450CDE9001012E095
:1056D000E00707D032463B4640464946FBF726F8EE
:1056E0008046894632463B4610461946FBF71EF86F
:1056F00006460F466410002CEAD1DDE90401DDE91D
:105700000023BAF1000F06DAFBF710F842464B46C9
:10571000FBF70CF805E0FAF791FD42464B46FAF725
:105720008DFD04460E460022284BFBF789F803D86E
:105730004FF0FF30014607E00022254B204631465E
:10574000FAF74DFFFBF764F8102409E0002C0ADBA0
:105750000A220023FAF746FE039B30321A55641ED4
:1057600050EA0102F2D1641C039AC4F111031444FB
:10577000119A012A03D0012208430DD10AE00843FF
:1057800004D000204FF0110B119072E7A3EB0B0532
:105790006D1E0DE05B4504DD4FF0000205F10105D3
:1057A00004E003DA4FF00002A5F10105002AECD075
:1057B00002981199C0E90231C0E9004579E700007B
:1057C000000014400000F03F300000000000F043F3
:1057D0000000E03F2DE9FF4F95B09B468946064605
:1057E00000250FE2252877D100242746F84A012119
:1057F000059400E0044316F8013F203B01FA03F052
:105800001042F7D130782A2811D06FF02F0330786A
:10581000A0F13002092A16D8059A44F0020402EBDE
:10582000820203EB42021044761C0590EFE759F820
:10583000042B0592002A03DA504244F400540590E8
:1058400044F00204761C30782E2816D116F8010F89
:1058500044F004042A280DD06FF02F023078A0F114
:105860003003092B09D807EB870302EB4303C71862
:10587000761CF3E759F8047B761C30786C280FD03F
:1058800006DC4C2817D068280DD06A2814D104E013
:10589000742810D07A280FD10DE044F400140AE0E7
:1058A00044F4801401E044F440147278824202D13E
:1058B00004F58014761C761C307866280BD013DC37
:1058C000582877D009DC002875D04528F6D046281E
:1058D000F4D047281AD19DE118E0632835D0642818
:1058E00079D0652812D195E1702873D008DC67283B
:1058F000F1D069286FD06E280DD06F2806D1B5E0A1
:1059000073282CD0752875D0782874D05A461799EA
:1059100090476D1C75E1C4F30250022809D003289A
:105920000DD0D9F8001004280DD00D6009F104093C
:1059300067E1D9F80010EA17C1E90052F6E7D9F893
:1059400000100D80F2E70D70F0E719F8041B8DF8D8
:10595000001000208DF80100EA46012003E059F80C
:1059600004AB4FF0FF3061074FF0000102D40DE0AF
:1059700008F101018846B9420FDA8045F8DB1AF8D0
:1059800008100029F4D108E008F10101884681429D
:10599000FADB1AF808100029F6D105985B46A0EB4F
:1059A000080721463846179A00F094FA284400EB7D
:1059B000080507E04DE029E10DE01AF8010B5A4611
:1059C00017999047B8F10108F7D25B46214638464F
:1059D000179A13E142E00A220092C4F302524FF0F8
:1059E000000A022A08D059F804CB032A4FEAEC71C6
:1059F0000AD00DE029E02AE009F1070121F00702B1
:105A0000F2E802C1914609E00FFA8CFC4FEAEC7112
:105A1000042A03D14FFA8CFC4FEAEC71002907DA13
:105A20000A460021DCF1000C61EB02012D2202E0AC
:105A3000220504D52B228DF80420012203E0E20781
:105A400001D02022F7E7904659E00A2102E0102217
:105A50000DE010214FF0000A00910BE010224FF0F2
:105A6000000A44F004040827009203E008224FF0E3
:105A7000000A0092C4F30252022A05D059F804CB5E
:105A80000021032A08D009E009F1070121F00702EB
:105A9000F2E802C1914605E01FFA8CFC042A01D10C
:105AA0000CF0FF0C4FF00008220728D5702806D014
:105AB000009B83F0100353EA0A0305D00EE0402256
:105AC0008DF80420012208E05CEA010206D03022B1
:105AD0008DF804208DF8050002229046009B83F08B
