:020000040800F2
:10000000580F00206D020008172800081726000866
:1000100015280008950F0008192F0008000000009F
:100020000000000000000000000000001B28000885
:100030006D10000800000000192800081D280008A5
:10004000870200088702000887020008870200086C
:10005000870200088702000887020008870200085C
:10006000870200088702000887020008870200084C
:10007000990F00088702000887020008870200081D
:10008000A50F000887020008870200088702000801
:10009000870200088702000887020008870200081C
:1000A000870200088702000887020008870200080C
:1000B00087020008870200088702000887020008FC
:1000C00087020008870200088702000887020008EC
:1000D00087020008192D0008252D00083D2D000875
:1000E00087020008870200088702000887020008CC
:1000F00087020008870200088702000887020008BC
:1001000087020008870200088702000887020008AB
:10011000870200088702000887020008870200089B
:1001200087020008B10F0008BD0F00088702000811
:10013000870200088702000887020008870200087B
:10014000870200088702000887020008870200086B
:10015000870200088702000887020008552D000862
:10016000870200088702000887020008870200084B
:1001700087020008870200088702000800000000CC
:10018000870200088702000887020008870200082B
:10019000870200088702000887020008870200081B
:1001A00087020008870200088702000800F002F8B2
:1001B00000F04DF80AA090E8000C82448344AAF1B4
:1001C0000107DA4501D100F042F8AFF2090EBAE8B2
:1001D0000F0013F0010F18BFFB1A43F0010318477B
:1001E000A02E0000C02E0000103A24BF78C878C1AD
:1001F000FAD8520724BF30C830C144BF04680C602D
:10020000704700000023002400250026103A28BF74
:1002100078C1FBD8520728BF30C148BF0B60704778
:10022000642900F0FB80732900F08D830020704763
:100230001FB502F007FF00F0D7FB040000200021EB
:1002400002F0EAFE401C60601FBD10B510BD00F05A
:1002500097FD1146FFF7ECFF02F076FE00F0B5FDCA
:1002600003B4FFF7F2FF03BC00F0F8FD0948804734
:1002700009480047FEE7FEE7FEE7FEE7FEE7FEE788
:10028000FEE7FEE7FEE7FEE704480549054A064BA0
:1002900070470000C1280008AD010008580900207F
:1002A000580F0020580B0020580B002053EA020C76
:1002B00000F069802DE9F04B4FF00006002B1FBFC6
:1002C000B3FA83F503FA05F424FA05F65E4012BF8B
:1002D0001643B2FA82F502FA05F4C5F120051EBFF5
:1002E00022FA05FC44EA0C04203556EA044C4FEA95
:1002F000144418BF641C4FF000084FF000099042EE
:1003000071EB030C39D3002919BFB1FA81F701FA57
:1003100007F6B0FA80F700FA07F6C7F120071EBF0C
:1003200020FA07FC46EA0C062037B6FBF4FCA7EBE4
:100330000507103F07F01F0BCBF120060CFA0BFB53
:100340002CFA06F644BFB3460026202FA4BF5E4613
:100350004FF0000B5BEA060C08BF4FF0010B19EBE6
:100360000B09ABFB027C48EB0608C01B06FB02CC6A
:100370000BFB03CC71EB0C01C1E70B460246414677
:100380004846BDE8F08B13B54FF000004FF0000178
:10039000AFF30080BDE81C40704700000FB41CB5EF
:1003A000084B06AA7B4469460090059800F0A1FA24
:1003B00004460020694600F0AFFA20461CBC5DF8F8
:1003C00014FB00007105000070B50C460546012ABB
:1003D00005D02878800600D5EA69002302E00123D1
:1003E00005E05B1C934202D2E05C0028F9D1A869C9
:1003F000E618C01AA861286A184428622846AFF394
:10040000008004E0D5E9012114F8010B9047B442C3
:10041000F8D32846AFF3008070BD00002DE9F0410D
:100420000646002410687529314616A510D0AFF392
:100430000080002802DA404213A507E031688A07ED
:1004400001D512A502E0490704D511A5012401E058
:10045000AFF3008000210A2206F1240709E0B0FB77
:10046000F2FCB0FBF2F302FB1C003030785418466B
:10047000491C0028F3D123462A463046BDE8F04106
:1004800000F0D9B9000000002D0000002B00000092
:10049000200000002DE9F05F894604464FF0000A75
:1004A000DFF874B1FB44C0F820A02046E16888471B
:1004B000002874D0252806D0D4E901219047206A6D
:1004C000401C2062F1E700265F462046E16888472D
:1004D0002028054607DB312D05D2781910F8200CAD
:1004E00008B10643F1E7B00701D526F00406C4F8C9
:1004F0001CA00027C4F818A02A2D09D0284602F015
:100500001CFD38B304EB8708303DC8F8185019E0DB
:1005100059F8041B204604EB87029161E168884783
:10052000012F054618D1E069002820DA26F02006C0
:100530001DE0D8F8180000EB800005EB40003038D3
:10054000C8F818002046E1688847054602F0F5FC27
:100550000028EED1012F0AD02E2D08D12046E168C7
:1005600088477F1C0546022F46F02006C4DBA069A1
:10057000002803DA404246F00106A061F00701D0EE
:1005800026F010066C2D0BD0682D09D04C2D39D0DB
:100590006A2D35D0742D35D07A2D33D016E038E061
:1005A000E1682F4620468847B842054609D16C2F9E
:1005B00026D04FF48060E168064320468847054610
:1005C00004E06C2F1AD04FF4807006430DB3A5F1F0
:1005D0004100192802D8203546F400664A462946CB
:1005E000204626604E46FFF71BFE80B101280BD047
:1005F000F61D26F0070000F1080956E74020E4E761
:100600008020D8E70020D6E706F104094DE7284608
:1006100052E7206ABDE8F09FC62B00000FB400B57A
:100620008DB010A9099000910B904FF0FF300A9007
:1006300000200C90064878440690064878446A46A4
:1006400007900F9909A800F097F90DB05DF814FB19
:100650005F030000770300002DE9FF5F1D464FF0A8
:10066000FF3B91464FF000085F46D5E90146A96976
:1006700001987F1C8847296A824688470028F6D15E
:10068000BAF1FF3F0CD0002E24F4C06419DD6006DF
:1006900014D5BAF12B0F09D0BAF12D0F0ED103E00A
:1006A000584604B0BDE8F09F44F48064A9690198FD
:1006B0007F1C8847761E8246002E02DDBAF1300F7D
:1006C00003D0B9F1000F26D032E0A969761E019857
:1006D0007F1C44F400748847002E824605DDBAF181
:1006E000780F06D0BAF1580F03D0B9F1000F10D02F
:1006F0001EE0B9F1000F02D0B9F1100F18D1A969AD
:10070000761E01987F1C24F40074884782461020CE
:1007100002E0082000E00A20814609E0A96908FB00
:100720000908761E01987F1C44F4007488478246AD
:10073000002E05DD4946504600F009F90028EDDAA3
:10074000E96901988847A00502D46FF00100A8E785
:10075000E00725D1600613D5600502D5C8F1000079
:1007600000E0404629680A1D2A600968220501D573
:10077000087015E0220701D5088011E008600FE03D
:100780002868011D29600068210502D580F80080D5
:1007900006E0210702D5A0F8008001E0C0F8008043
:1007A00038467EE710B5431C02E010F8011B71B11A
:1007B0008107FAD14FF0013202C88C1A8C4314EA37
:1007C000C211F9D0C01A0A0603D0C01E10BDC01A4B
:1007D00010BD0A0401D0801E10BD0902FCD0401ECD
:1007E00010BD4FF0000200B51346944696462039DE
:1007F00022BFA0E80C50A0E80C50B1F12001BFF4DA
:10080000F7AF090728BFA0E80C5048BF0CC05DF83F
:1008100004EB890028BF40F8042B08BF704748BF8D
:1008200020F8022B11F0804F18BF00F8012B704701
:100830007047704770472DE9F0470D46994692463C
:10084000044600F124080168880604D5E06921F017
:100850001001216000E00120A84201DD471B00E0FB
:100860000027A1697A1902EB0900081AA061207813
:10087000C00602D42046AFF30080002608E0D4E989
:1008800001211AF806009047206A401C761C20625D
:100890004E45F4DB2078C0060AD52046AFF3008031
:1008A00006E0D4E9012130209047206A401C2062F4
:1008B000381EA7F10107F4DC07E0D4E9012118F89C
:1008C00005009047206A401C2062281EA5F1010502
:1008D000F3DC2046AFF300802078000602D502202A
:1008E000BDE8F0870120FBE701694A1C0261087836
:1008F000704700B58FB0CDE9013100210591054960
:100900007944CDE9031011466846FFF7C3FD0FB0E7
:1009100000BD0000E5FFFFFF0A6802F8010B0A6056
:10092000704710B5436913B1AFF3008001E0FFF7E2
:100930004BFD012010BD127800F124010A70002245
:100940004A700122EDE711684FF0FF32E9E73A28DB
:1009500000D2303820F02002412A01D3A2F1370022
:10096000884201D34FF0FF30704700000268114405
:100970001378016018467047D16005497944516188
:1009800004497944116200211161114600F03AB81E
:10099000EDFFFFFF6B000000426842B1016811F8F3
:1009A000013B23B1521EC0E90012184670470121D5
:1009B000C160881E704742685AB1C368016843B974
:1009C00083688B4205D0491E521CC0E900120020EA
:1009D00070474FF0FF30704710B500F005F8001D6C
:1009E00010BD00BF352600000048704718090020E0
:1009F00010B50446FFF7F0FF0068005D00F001004D
:100A000010BD00002DE9F34F4FF0000A0C4656468A
:100A10008DB001200C9001F10C000B9062690B98D5
:100A200001219047051E2DD0252D2CD0216A884705
:100A3000C0B162690B9801219047216A884700285C
:100A4000F7D16269411E0B98904700E0761CA169BE
:100A50000D988847216A88470028F7D1E1690D98E9
:100A60008847DBE7A1690D988847A842074601D16E
:100A7000761CD3E7E1690D9888477F1C02D1BAF153
:100A8000000F6FD06CE162690B9800273D46394634
:100A900090472A2804D162690B98012190470125CB
:100AA000DFF8D08262690B9801219047A0F13001F4
:100AB0000A290AD24745E5DC07EB870100EB41072D
:100AC000303FDFD445F01005ECE7E90601D46FF0C4
:100AD00000476C280AD04C2814D0682815D06A2802
:100AE0000DD074281CD07A281AD01DE062690B98AA
:100AF000012190476C2802D045F0040514E045F030
:100B000002050DE045F020050AE062690B9801211D
:100B10009047682802D045F0080505E045F40065D7
:100B200062690B9801219047C4E9015765283DD0BF
:100B300019DC58287AD00CDC452837D004DC25286D
:100B400026D041289ED131E046282FD0472899D180
:100B50002CE05B2877D0612828D063287CD06428DB
:100B600023D15AE0F7E06F2848D008DC66281DD072
:100B700067281BD0692821D06E2816D127E070285D
:100B800045D0732868D0752847D078280DD14DE01E
:100B9000A1690D988847252805463FF469AFE169AA
:100BA0000D9888476D1C3FF46AAFD9E00D99234634
:100BB0006A466FF00100AFF30080C6E045F04000E8
:100BC00023464FF000026060A80736D43EE0E807F5
:100BD0007FF447AF2068011D21600068290501D519
:100BE00006701BE7290701D5068017E7A90703D57B
:100BF000F117C0E9006111E706600FE745F040001A
:100C000023464FF008026060A80716D41EE040F6A5
:100C10000E0125EA0100606016E045F04000234621
:100C20004FF00A026060A80707D40FE045F04000CB
:100C30006060A80708D5234610220D996FF00100C7
:100C4000AFF3008081E007E0102223460D996FF09A
:100C50000100FFF701FD78E04FF0000963284F46DF
:100C6000C8464B46CB4602D05B2807D039E02079F6
:100C7000C00601D40120A060012732E06269D4F8E7
:100C80000CB00B98012190475E2807D14FF0010965
:100C900049466269D4F80CB00B989047216939B97C
:100CA00000210A4603AB43F82120491C0829FADB3E
:100CB000D8B3216949B308F1010862690B98012191
:100CC00090475D28F4D1B9F1000F09D0002003A9A5
:100CD00051F82020D24341F82020401C0828F7DB9F
:100CE00003AB2069002820794FEA40701ED05B4694
:100CF0002246CDF80080CDE901970D9900286FF0CC
:100D0000010020DAAFF300801FE0C11703AA00EB57
:100D1000D1614B1121F01F0102EB8302411A1368CC
:100D20000120884003431360C7E719E00D9922466C
:100D300000286FF00100009702DAAFF3008004E0B2
:100D4000AFF3008001E0AFF3008000280ADA401C16
:100D500006D10C9820B14FF0FF300FB0BDE8F08FF6
:100D60005046FAE7E90701D10AF1010A06440020DA
:100D70000C9053E6CCCCCC0C00487047F80800200F
:100D80007546FFF7F9FFAE4605006946534620F069
:100D90000700854618B020B5FFF776FABDE8204079
:100DA0004FF000064FF000074FF000084FF0000B27
:100DB00021F00701AC46ACE8C009ACE8C009ACE8DA
:100DC000C009ACE8C0098D46704710B50446AFF3C2
:100DD00000802046BDE81040FFF742BA4FF0013CCA
:100DE00050F8042B51F8043B9A4221D1A2EB0C039A
:100DF000934313EACC1317D150F8042B51F8043B5A
:100E00009A4215D1A2EB0C03934313EACC130BD1F6
:100E100050F8042B51F8043B9A4209D1A2EB0C0381
:100E2000934313EACC13DBD04FF00000704700BFB0
:100E3000D01A01BAB1FA81F101F0180122FA01F0D9
:100E4000CB40C1F12001DBB2C0B2C01A2CFA01F3D1
:100E5000D11A914311EAC311E6D170470149182014
:100E6000ABBEFEE72600020070470000464910B501
:100E70004A6822F440324A604A6843681A434A602A
:100E800001684A6822F480724A6001684A6803690E
:100E900042EA03224A6001684A6822F040724A60CE
:100EA00001684A6883681A434A6001688A6822F4C4
:100EB00000628A6001688A68C3681A438A60816A2E
:100EC0006FF07062D14201688A6822F070628A60B5
:100ED00001688A680CD0836A1A438A6001688A684C
:100EE00022F040528A6001688A68C36A1A4301E0AE
:100EF00022F040528A6001688A6822F002028A6009
:100F000001688A68037E42EA43028A6090F82010F2
:100F1000002901684A680FD042F400624A60016803
:100F20004A6822F460424A6001684A68174C436A82
:100F300004EB43331A4301E022F400624A60016883
:100F4000CA6A22F47002CA620168CA6A838B104CB2
:100F500004EB03531A43CA6201688A6822F40072E0
:100F60008A6001688A6890F8303042EA43228A60D9
:100F700001688A6822F480628A6001688A68406930
:100F800042EA8020886010BD0023014000E0FFFF9E
:100F90000000F0FFFEE70000014800F0D3B90000B8
:100FA00038080020014800F0CDB90000D807002023
:100FB000014800F0C7B9000098080020014800F07F
:100FC000C1B900007807002001681823CAB2103A9E
:100FD000B2FBF3F2054B6FF30901032A9B5CC36577
:100FE00000D9091D81650846704700004E30000891
:100FF00010B5014600208B698A6A4FF0C07453B166
:10100000B3F5005F15D072B1012A0CD0022A0AD0C4
:10101000032A09D104E01AB1012A06D0022A03D119
:10102000C96AC90100D5012010BDC96AA142FAD020
:1010300010BD002AF7D0012AF2D0022AF3D0032AE9
:10104000F3D010BD30B50468256825F480252560EF
:10105000046863608368402B036803D0996000686C
:10106000C26030BD9A600068C16030BD704772B622
:10107000FEE7000078B50024009490F83C20012A97
:1010800019D0012280F83C200A6807230568092A44
:1010900013D9EE680A3A02EB420293409E43EE6097
:1010A0000B788A680A3B03EB43039A400368DD68C8
:1010B0002A43DA6010E0022078BD2E6902EB42027A
:1010C00093409E432E610B788A6803EB43039A405A
:1010D00003681D692A431A614A681F23072A13D22D
:1010E00005686E6B521E02EB820293409E436E6354
:1010F0000A8893B20A79521E02EB82029340026878
:10110000556B2B43536327E005680D2A12D22E6BD3
:10111000D21F02EB820293409E432E630B790A8812
:10112000DB1F92B203EB83039A4003681D6B2A43D3
:101130001A6311E0EE6A0D3A02EB820293409E437D
:10114000EE620B790A880D3B92B203EB83039A405F
:101150000368DD6A2A43DA621B4B0568194A9D421F
:101160000AD10D68122D07D1556825F40005556088
:10117000556845F48005556005689D421DD1134DA5
:101180000B68AB4201D0112B17D1536823F48003B5
:101190005360536843F4000353600968A9420CD1BB
:1011A0000B490C4A0968B1FBF2F101EB81014900DE
:1011B00000E0491E00910029FBD180F83C4000204E
:1011C00078BD000000230140002001401200001003
:1011D0000C00002040420F0070B504004FF00005E5
:1011E00003D0206C002610B107E0012070BD20461E
:1011F00000F01CF8666484F83C60206CC00610D4D3
:10120000206C20F4885040F0020020642046FFF754
:101210002DFE6664206C20F0020040F00100206486
:1012200000E0012584F83C60284670BD10B586B00A
:10123000044614216846FFF7D4FA11492068884211
:101240001CD110480021026842F4807202600068DC
:1012500000F4807005900B481438026842F00102D7
:101260000260006800F0010005900120009003205A
:10127000CDE901016946044800F0E8F906B010BD67
:101280000020014044380240000002402DE9F041B6
:101290000446876D00F0F4FA064694F83500002500
:1012A000022806D08020606584F834500120BDE813
:1012B000F0812068016821F0160101602068416911
:1012C00021F080014161206C08B9A06C20B1206838
:1012D000016821F0080101602068016821F0010126
:1012E00001600CE000F0CCFA801B052807D9202013
:1012F0006065032084F8350084F83450D7E720680F
:101300000068C007EED194F85C103F208840B860B8
:10131000012084F8350084F834500020C7E790F8A5
:101320003510022903D08021416501207047052135
:1013300080F835100068016821F00101016000208B
:10134000704700002DE9F84304464FF00009CDF83E
:10135000009063484FF41651A56D0068B0FBF1F79B
:101360002E6894F85C10082000FA01F131420FD089
:1013700021680A6852070BD50A6822F004020A6045
:1013800094F85C108840A860606D40F001006065D2
:1013900094F85C104FF0010808FA01F0304208D0D0
:1013A00021684969090604D5A860606D40F0020013
:1013B000606594F85C1004208840304208D02168B1
:1013C0000968890704D5A860606D40F00400606575
:1013D00094F85C1010208840304218D021680968C9
:1013E000090714D5A86020680168490304D500687E
:1013F000000308D5A16C07E00168C90503D40168A2
:1014000021F008010160216C09B12046884794F859
:101410005C1020208840304231D021680968C9061C
:101420002DD5A86094F8350005282068016806D0FD
:10143000490347D5006800031DD4616C1CE021F00E
:10144000160101602068416921F080014161206C32
:1014500008B9A06C20B12068016821F00801016082
:1014600094F85C103F208840A86084F8358084F8A8
:101470003490216D1FE0E16B09B120468847606D13
:1014800000282BD0606DC00714D0052084F83500EB
:101490002068016821F0010101600098401C009063
:1014A000B84203D820680068C007F6D184F83580B8
:1014B00084F83490E16C002910D001B02046BDE8DA
:1014C000F04308470168C905D5D4016821F010012F
:1014D000016084F8358084F83490CCE7BDE8F88367
:1014E0000C0000202DE9F041044600F0C9F9064641
:1014F0005CB1022084F83500002584F8345020685F
:10150000016821F0010101600DE00120BDE8F081DA
:1015100000F0B6F9801B052805D92020606503205E
:1015200084F83500F2E720680068C007F0D122682F
:10153000116820480140D4E901031843D4E9033677
:101540003343184363691843A3691843E369184395
:10155000236A18430843616A042903D1D4E90B13B1
:1015600019430843106020684069666A20F007014B
:1015700030460E43012704280CD1A06A0643E06AD6
:1015800040B12046FFF734FD20B14020606584F86B
:101590003570BAE7206846612046FFF715FD94F8DC
:1015A0005C203F2191408160656584F835700020A2
:1015B000ACE700003F8010F02DE9F0410446866D55
:1015C00090F83400002501280DD0012084F8340063
:1015D00094F835700020012F07D084F834000225DC
:1015E0002846BDE8F0810220FBE7022784F8357029
:1015F00060652046FFF726FD94F85C103F20884088
:10160000B0602068016841F016010160206C20B1D3
:101610002068016841F0080101602068016841F01C
:1016200001010160DCE7000070B5044600F028F914
:101630000546601C02D004480078044400F020F9FC
:10164000401BA042FAD370BD000000202DE9F84FE6
:10165000DFF8F8A10022012403254FF00F090AF159
:10166000040BAAF1040E00BF0B6804FA02F6334023
:10167000B34270D10F7907F00307012F01D0022F79
:1016800016D187684FEA420805FA08FC27EA0C07DA
:10169000D1F80CC00CFA08FC4CEA070CC0F808C0E2
:1016A0004768B7430E79C6F3001696403E4346603E
:1016B0000E79F643B6070AD0C7684FEA420C05FA1E
:1016C0000CF6B7438E6806FA0CF63E43C6600E79F8
:1016D00006F00306022E10D1D60800EB8608D8F8D3
:1016E000206057074FEAD76C09FA0CF7BE430F6921
:1016F00007FA0CF73743C8F8207006684FEA420C27
:1017000005FA0CF7BE430F7907F0030707FA0CF749
:10171000374307604E6816F4403F1CD04C4E376884
:1017200047F480473760366822F0030706F48046A6
:101730000096484E07EB060CDCF8086897073F0F49
:1017400009FA07F826EA0806DFF80C81404503D1BC
:101750004FF0000841E072E0DFF80081404502D11F
:101760004FF0010839E0DFF8F880404502D14FF032
:10177000020832E0DFF8EC80404502D14FF0030868
:101780002BE0DFF8E480404502D14FF0040824E06C
:10179000DFF8D880404502D14FF005081DE0DFF8A2
:1017A000D080404502D14FF0060816E0DFF8C48033
:1017B000404502D14FF007080FE0DFF8BC804045FC
:1017C00002D14FF0080808E0DFF8B080404502D1B0
:1017D0004FF0090801E04FF00A0808FA07F848EA54
:1017E0000608CCF80888DAF800605746D1F804C03B
:1017F0009E435FEACC2C00D51E433E60DBF80060C0
:101800005F46D1F804C09E435FEA8C2C00D51E438E
:101810003E60DEF800607746D1F804C09E435FEA80
:101820008C3C00D51E433E60084F083F3E68D1F80F
:1018300004C09E435FEACC3C00D51E433E60521C70
:10184000102AFFF411AFBDE8F88F0000083C0140FA
:1018500044380240003001400000024000040240D1
:1018600000080240000C0240001002400014024038
:1018700000180240001C02400020024000240240E8
:10188000014880687047000000000020024881681D
:101890000278114481607047000000200B4810B5A9
:1018A000016841F400710160016841F480610160E8
:1018B000016841F480710160032000F06FF80F208F
:1018C00000F006F800F024F8002010BD003C0240B3
:1018D00070B50D4D04464FF47A712878B1FBF0F0E5
:1018E0000A490968B1FBF0F000F044FB48B9102C3C
:1018F00007D200222146501E00F030F800206C6014
:1019000070BD012070BD0000000000200C00002010
:101910000A4808B5016841F480410160006800F49C
:10192000804000900548001F016841F0805101602F
:10193000006800F08050009008BD0000443802406C
:10194000002809DB00F01F020121914040098000BE
:1019500000F1E020C0F8001170470000F0B40E4B19
:101960001B680C46C3F30223C3F10705042D00D9FD
:101970000425191D072901D2002300E0DB1E0126E2
:1019800006FA05F1491E214099409E40761E1640F8
:101990003143F0BC01F0C1BA0CED00E0064900F0A3
:1019A000070208684FF6FF03184040EA0220034A86
:1019B00010430860704700000CED00E00000FA05DD
:1019C0002DE9F8431748016841F080510160006833
:1019D000154F00F08050012600903E64FFF750FF45
:1019E00005464FF47A78114C05E000BFFFF748FF39
:1019F000401B40450DD86068C003F7D57E64FFF7F3
:101A00003FFF0546464607E0FFF73AFF401BB0425E
:101A100002D90320BDE8F88360688003F4D5002074
:101A2000F8E700004038024000000E42007000401D
:101A30002DE9F0470E46050065D0DFF81481D8F88F
:101A40000000F7B200F00F00B04207D288F8007033
:101A5000D8F8000000F00F00B04254D128683D4C87
:101A6000810712D5400703D5206840F4E05020607C
:101A70002878000703D5206840F460402060206883
:101A8000A96820F0F000084320602878C0072DD016
:101A9000304968680839012812D0022813D0032879
:101AA00011D00968890700292DDA216821F0030186
:101AB00001432160FFF7E4FE814641F2883A0EE0DF
:101AC00009688903EFE709688901ECE7FFF7D8FEA9
:101AD000A0EB0901514502D90320BDE8F087206839
:101AE000696800F00C00B0EB810FEFD1D8F800105E
:101AF000404601F00F01B14207D90770006800F0BD
:101B00000F00B04201D00120E7E72878400705D553
:101B10002068E96820F4E050084320602878000736
:101B200006D52068296920F4604040EAC1002060A1
:101B300000F038F82168084AC1F30311515CC8402D
:101B40000649086006480068FFF7C2FE0020C4E7A7
:101B5000003C024008380240563000080C000020CB
:101B6000040000200448054900680968044AC1F3DC
:101B70008221515CC84070470C00002008380240A8
:101B8000663000080448054900680968044AC1F342
:101B90004231515CC84070470C00002008380240B8
:101BA00066300008154810B5006810F00C021448A3
:101BB00013D01449042A0FD0082A0ED10F4C241F29
:101BC0002268236802F03F025B0207D52068C0F359
:101BD0008810A0FB010106E0084610BD2168C1F392
:101BE0008811A1FB00010023FEF760FB2168C1F30F
:101BF0000141491C4900B0FBF1F010BD083802401A
:101C00000024F40040787D012DE9F84F04006ED0E7
:101C10002078DFF84C93C007A9F104054AD009F1F8
:101C200004000168C1F38101012908D00068C0F3F4
:101C3000810002280AD1D9F80000400206D52868A0
:101C4000800337D560680028E1D033E06068B0F5E4
:101C5000803F10D0B0F5A02F286810D020F480303D
:101C60002860286820F4802028606068A8B1FFF709
:101C700007FE06460DE0286840F48030F4E740F4A3
:101C800080202860F7E700BFFFF7FAFD801B64287B
:101C900073D828688003F7D50CE0FFF7F1FD0646FE
:101CA00005E000BFFFF7ECFD801B6428F0D8286832
:101CB0008003F7D42078DFF8AC8280074FF0000A69
:101CC0003ED5A748001D016811F00C0F08D0006830
:101CD000C0F3810002280BD1D9F80000400207D4DC
:101CE0002868800716D5E068012800D112E033E1AA
:101CF000E068B8B10120C8F80000FFF7C1FD064652
:101D000005E000BFFFF7BCFD801B0228C0D8286893
:101D10008007F7D52868216920F0F80040EAC10063
:101D200028600DE0C8F800A0FFF7AAFD064604E011
:101D3000FFF7A6FD801B02281FD828688007F7D46C
:101D40002078000722D5864F87486169703771B1C6
:101D500001210160FFF794FD064604E0FFF790FDC6
:101D6000801B022809D838688007F7D50EE0C0F834
:101D700000A0FFF785FD064605E082E0FFF780FD45
:101D8000801B02287DD838688007F7D42078400768
:101D900068D5DFF8CCB100270BF13C0BDBF8000075
:101DA000C0000BD4DBF8001041F08051CBF80010DC
:101DB000DBF80000012700F0805000906B4E306887
:101DC000C00510D4306840F480703060FFF758FDD3
:101DD000009005E0FFF754FD0099401A022850D802
:101DE0003068C005F6D55E4EA0686C3601280FD06D
:101DF0000528306810D020F001003060306820F0F5
:101E000004003060A068B8B1FFF73AFD00900FE021
:101E1000306840F00100F4E740F004003060F7E77C
:101E2000FFF72EFD0099411A41F28830814266D8B1
:101E300030688007F4D50EE0FFF722FD009007E040
:101E4000FFF71EFD0099411A41F28830814256D8B1
:101E500030688007F4D42FB1DBF8001021F08051F6
:101E6000CBF80010A069C8B33D49091D0968C1F34A
:101E7000810102294AD00228504607D0C8F86000E4
:101E800000E03CE0FFF7FCFC04463BE04746C8F8B6
:101E90006000FFF7F5FC064605E000BFFFF7F0FC29
:101EA000801B02282BD828688001F7D4D4E90701C9
:101EB0000843A16A2E4A490802EB0141626A41EADD
:101EC0008211084394F82C1040EA0161C9F800100F
:101ED00001203866FFF7D4FC044606E03EE000BF70
:101EE000FFF7CEFC001B022809D828688001F7D52F
:101EF00034E000BFFFF7C4FC001B022802D9032016
:101F0000BDE8F88F28688001F4D427E00128F7D0D5
:101F1000D9F80000E26900F4800191421CD1226AE4
:101F200000F03F01914217D147F6C071626A01404B
:101F3000B1EB821F10D1A26A4FF0FF3300F44031A1
:101F400003EB5202B1EB024F06D194F82C1000F0D3
:101F50007060B0EB016F01D00120D1E70020CFE726
:101F60000438024000004742800E474200700040A3
:101F70000000FFFF10B5401EB0F1807F01D30120AB
:101F800010BD4FF0E02460610F21601700F0C5FF25
:101F90000020A06107202061002010BD704710B50F
:101FA00004460068406994F84110C0F3C01021292C
:101FB00011D180B12068143050E8001F21F0800159
:101FC00040E80012002AF5D1A06B08B1FFF75EF9D6
:101FD000204600F022FD2068406994F84210C0F3CA
:101FE0008010222911D180B12068143050E8001FE0
:101FF00021F0400140E80012002AF5D1E06B08B161
:10200000FFF744F9204600F0E1FC002010BD7047C6
:10201000F8B5016804460868CA684B6910F00F0FEC
:102020004FF0000559D003F0010602F490773743D2
:1020300065D0C10705D0D10503D5616C41F0010120
:102040006164410705D5D90703D0616C41F00201F5
:102050006164810705D5D90703D0616C41F00401A3
:102060006164010707D502F02001314303D0616CA0
:1020700041F008016164616C00293AD0800604D502
:10208000900602D5204600F0D6FC20684069616CBD
:10209000C0F38010090700D460B3204600F096FC1E
:1020A00020684069400621D52068143050E8001FA0
:1020B00021F0400140E80012002AF5D1E06BA8B100
:1020C00072490165E06BFFF72AF9002811D0E06B37
:1020D000016D01B0BDE8F040084783060FD59306B7
:1020E0000DD52046BDE8F84000F0A5BC2046FFF71E
:1020F0008EFFF8BD2046FFF78AFF6564F8BD266BAA
:102100002023012E7ED1C6067CD5D6067AD5086856
:102110004868009048694FF0020640064DD5E26BD2
:10212000106840684FF480770004000C3AD0A18D0D
:10213000814237D9E085D069B8422DD020680C3073
:1021400050E8001F21F4807140E80012002AF5D108
:102150002068143050E8001F21F0010140E800120F
:10216000002AF5D12068143050E8001F21F040010A
:1021700040E80012002AF5D184F842302563206837
:102180000C3050E8001F21F0100140E80012002A36
:10219000F5D1E06BFFF77AF86663A08DE18D401A08
:1021A00081B206E0A18D8142A8D1D069B842A5D103
:1021B00066632046FFF7F2FEF8BDA08DE18D401A60
:1021C00081B2E08D0028F7D00029F5D020680C30CE
:1021D00050E8002F22F4907240E80027002FF5D13C
:1021E0002068143050E8002F22F0010240E8002758
:1021F000002FF5D184F84230256320680C3050E878
:10220000002F00E006E022F0100240E80023002B3F
:10221000F3D1CDE705062BD5150629D594F8410055
:102220002128C9D1A068B0F5805F01D12069B0B183
:10223000206A411C2162216800784860E08C401EC1
:102240000004000CE084B7D12068C16821F080014F
:10225000C1602068C16841F04001C160F8BD206ADA
:102260000088C0F308004860206A801C2062E5E70F
:102270004006F3D55006F1D5CA68204622F0400248
:10228000CA6084F8413000F0C5F9F8BDD1280008D3
:1022900070B5040004D094F84100002510B106E0A8
:1022A000012070BD84F84050204600F023F824201F
:1022B00084F841002068C16821F40051C1602046C3
:1022C00000F01AFC2068016921F490410161206846
:1022D000416921F02A0141612068C16841F400513F
:1022E000C1606564202084F8410084F84200656381
:1022F000002070BD2DE9F04F87B0054614216846D7
:10230000FEF76FFA8848DFF81C821438D5F800C051
:102310000024DFF814B2022103220723DFF80CE2C5
:10232000061587154FF00069C44544D1DBF80080DD
:1023300048F01008CBF80080DBF800C00CF0100C5F
:10234000CDF814C0D0F800C04CF0010CC0F800C0AB
:10235000006800F00100059050028DE81300694606
:102360007046CDE90323FFF771F9DFF8C8817049A2
:102370004046C8F80010C0E90194C0E90346C8F817
:102380001440C0E90647C8F82040C8F82440FFF7C9
:10239000A9F808B1FEF76BFEC5F83C800022114693
:1023A0002520C8F83850FFF7D9FA2520FFF7C8FADA
:1023B00007B0BDE8F08FDFF88081DFF86CA1C4457D
:1023C000AAF1040A39D1DAF8008048F40038CAF8D2
:1023D0000080DAF800C00CF4003CCDF814C0D0F84E
:1023E00000C04CF0010CC0F800C0006800F0010013
:1023F00005900C208DE8130069467046CDE9032353
:10240000FFF724F9DFF82C814C4908F160084046B9
:10241000C8F80010C0E90194C0E90346C8F81440A8
:10242000C0E90647C8F82040C8F8244073E000BF60
:10243000C5F83C80C8F83850BAE7DFF80481C445D5
:1024400035D1DAF8008048F48028CAF80080DAF83C
:1024500000C00CF4802CCDF814C0D0F800C04CF0B3
:10246000020CC0F800C0006800F0020005904FF4B4
:1024700040608DE8130069463248CDE90323FFF739
:10248000E5F8DFF8B0802D4908F1C0086039404612
:10249000C8F80010C0E90194C0E90346C8F8144028
:1024A000C0E90647C8F82040C8F8244033E0264B6E
:1024B0009C45C1D1DBF800C04CF0200CCBF800C02B
:1024C000DBF8003003F020030593036843F00403B6
:1024D0000360006800F004000590C0208DE8130040
:1024E0000820CDE9032069461848FFF7AFF81049E6
:1024F000DFF85C8018394046C8F800108905C0E94B
:102500000114C0E90346C8F81440C0E90647C8F8FA
:102510002040C8F82440FEF7E5FF002888D0FEF7E9
:10252000A6FD85E70010014044380240000002404B
:102530004064024078070020004400408860024068
:10254000004800400004024000140140000802401E
:102550009808002090F84230202B01D002207047CC
:1025600021B11AB10023036300F04CBB0120704776
:10257000704770472DE9F843044690F841009846AB
:1025800016460D46202802D00220BDE8F88385B10A
:102590007EB100206064212084F84100FFF770F9CB
:1025A000A6848146E684A0682027B0F5805F02D02B
:1025B00003E00120E9E7206910B12E4600250EE076
:1025C00000260CE08021204600F06CFBA8B9C6B1C3
:1025D00016F8010B21684860E08C401EE084E08C16
:1025E0004B464FF00002CDF800800028EAD14FF0B2
:1025F0004001204600F056FB40B184F841700320B2
:10260000C3E735F8020BC0F30800E3E784F8417034
:102610000020BAE77047FEE77FB500241548009414
:10262000019402941249039401604FF48031C0E98F
:1026300001140461047680F820400F49C0E90A14AF
:102640000125C561C46080F830404561FEF7C4FDD6
:1026500008B1FEF70CFDCDE9004569460548029436
:10266000FEF708FD002801D0FEF701FD7FBD000048
:1026700000200140100200200100000F194808B599
:10268000016841F480010160016801F4800100915A
:10269000016841F4001101600068002200F400109C
:1026A000009011460C20FFF759F90C20FFF748F96C
:1026B000002211461020FFF751F91020FFF740F9D2
:1026C000002211463920FFF749F93920FFF738F980
:1026D000002211463A20FFF741F9BDE808403A20B0
:1026E000FFF72EB930380240114808B5016841F0B3
:1026F00004010160016801F004010091016841F0EA
:1027000080010160016801F080010091016841F0E1
:1027100001010160016801F001010091016841F0CF
:1027200002010160006800F00200009008BD000096
:10273000303802400C4810B50A4901604FF4E131CD
:102740004160002181600C22C160C0E904128161F6
:10275000C161FFF79DFD002803D0BDE81040FEF7E2
:1027600086BC10BD00100140580600200C4810B572
:102770000A4901604FF4E1314160002181600C227F
:10278000C160C0E904128161C161FFF781FD0028C9
:1027900003D0BDE81040FEF76ABC10BD0044004005
:1027A000A00600200C4810B50A4901604FF4E13141
:1027B0004160002181600C22C160C0E90412816186
:1027C000C161FFF765FD002803D0BDE81040FEF7AA
:1027D0004EBC10BD00480040E80600200C4810B573
:1027E0000A4901604FF4E1314160002181600C220F
:1027F000C160C0E904128161C161FFF749FD002891
:1028000003D0BDE81040FEF732BC10BD00140140FB
:1028100030070020FEE7FEE770477047FFF736B845
:1028200030B593B030216846FDF7DBFF14210CA8CA
:10283000FDF7D7FF20480025016841F08051016075
:10284000006800F0805011901C48016841F440413C
:1028500001600068022400F44040119001200390C0
:1028600010200490009406940820CDE90750B4206D
:10287000CDE9090404200B906846FFF7C5F908B1BB
:1028800072B6FEE7FFF79CF808B172B6FEE70CA936
:102890000F2081E831004FF4A0500F904FF480508A
:1028A000109005210CA8FFF7C3F8002801D072B6DC
:1028B000FEE713B030BD0000403802400070004019
:1028C0000248016841F470010160704788ED00E042
:1028D00010B5806B0021C185FFF799FB10BD70B565
:1028E000846B2068406994F84110C0F3C010002543
:1028F000212904D118B1E584204600F08EF8206823
:10290000406994F84210C0F38010222904D118B114
:10291000E585204600F05AF8606C40F010006064D5
:102920002046FFF774FB70BD10B50146806B096847
:1029300009684FF00002C9052ED4C28501680C3128
:1029400051E8003F23F4807341E80034002CF5D1B6
:102950000168143151E8003F23F0010341E80034DD
:10296000002CF5D10168143151E8003F23F04003F9
:1029700041E80034002CF5D1202180F84210016B91
:10298000012909D101680C3151E8003F23F01003FF
:1029900041E80034002CF5D14263016B012902D0DB
:1029A000FFF7E6FD10BD818DFFF7F8FA10BD10B5F9
:1029B000806B01214163016B012902D0FFF7D9FD32
:1029C00010BD818D4908FFF7E9FA10BD01680C318F
:1029D00051E8002F22F4907241E80023002BF5D13A
:1029E0000168143151E8002F22F0010241E8002370
:1029F000002BF5D1016B012909D101680C3151E897
:102A0000002F22F0100241E80023002BF5D12021F5
:102A100080F8421000210163704701680C3151E8D1
:102A2000002F22F0C00241E80023002BF5D1202125
:102A300080F84110704708B590F84210222901D063
:102A4000022008BD82684FF480539A4201D1016987
:102A500021B1816A9A421BD04AB10AE00268816AB8
:102A60005268C2F308020A80816A891C08E0026980
:102A700072B10268526802F07F020A70816A491CD2
:102A80008162C18D491E0904090CC18503D01BE078
:102A900002685268F1E70168CA6822F02002CA6041
:102AA0000168CA6822F48072CA6001684A6922F02B
:102AB00001024A61202180F8421000214163026B2B
:102AC000012A03D0FFF754FD002008BD016301680F
:102AD0000C3151E8002F22F0100241E80023002BB6
:102AE000F5D101680A68D20602D50A6849680091E2
:102AF000818DFFF753FAE7E770B504460068016976
:102B0000E26821F44051114301612169A068E26942
:102B100008436169114308432168CA6849F20C639C
:102B20009A430243CA6020684169A26921F4407156
:102B30001143416131492068884202D030498842BE
:102B400002D1FFF71FF801E0FFF70CF8E26900235C
:102B5000192164253226B2F5004F626828D0A0FB07
:102B60000101930F9200FDF7A1FB0146B0FBF5F0C8
:102B70006FF01802504301EB800006EB0010B0FB31
:102B8000F5F000F0F002B1FBF5F002EB0012B1FB42
:102B9000F5F06FF01803584301EB800006EB0010CE
:102BA000B0FBF5F000F00F0021681044886070BDA4
:102BB000A0FB010192185B41FDF778FB0146B0FBD9
:102BC000F5F00201B1FBF5F06FF01803584301EB8B
:102BD000800006EBC000B0FBF5F000F0F80002EB5F
:102BE0004002B1FBF5F0584301EB800006EBC0005A
:102BF000B0FBF5F000F00700D6E700000010014040
:102C00000014014038B581620446828500201346D5
:102C10006064222284F84220E56B1F4AEA63E56B78
:102C20001E4A2A64E56B1E4AEA64E26B10650A4696
:102C30002168E06B091DFEF7BFFC30B11020606415
:102C4000202084F84200012038BD206801684068D7
:102C50000090206948B120680C3050E8001F41F412
:102C6000807140E80012002AF5D12068143050E845
:102C7000001F41F0010140E80012002AF5D1206850
:102C8000143050E8001F41F0400140E80012002AD3
:102C9000F5D1002038BD000029290008AF2900081F
:102CA000DF2800082DE9F843984617460D460446EC
:102CB000089E24E0701C22D0FEF7E2FDA0EB080085
:102CC000B0421AD8CEB12068C168490717D5802D07
:102CD00015D0402D13D00168C94309070FD40168EE
:102CE0000025406800902046FFF770FE08206064D1
:102CF00084F840500120BDE8F8830320FBE72068FA
:102D0000006835EA000004D00020B842D2D000208C
:102D1000F1E70120F9E700000148FFF779B9000069
:102D20005806002010B50448FFF772F9BDE81040BE
:102D3000014800F0D9B80000A006002010B50448F2
:102D4000FFF766F9BDE81040014800F0CDB800007B
:102D5000E806002010B50448FFF75AF9BDE8104016
:102D6000014800F0C1B8000030070020F0B597B06E
:102D7000002405461494159412941394FFF70FF948
:102D80002F49286888423FD12E48006840682E4964
:102D9000C0F1FF00C0B212AE0C5413ACCDE9006418
:102DA00015AB14AA29A12848FDF738FC4FF6FF7788
:102DB00004280AD0CDE9006415AB14AA2CA122483E
:102DC000FDF72CFC042806D01BE0DDE91201CDE95B
:102DD000000130A104E0DDE91201CDE9000135A1D7
:102DE000DDE9142302A8FDF7D9FA02AA39A13A486D
:102DF000FDF7D4FA384982B23B4601F58960FFF706
:102E0000B9FBFF22104916E03449884216D10D481B
:102E10006038006840683249C0F1FF00C0B20C540D
:102E20000846FDF7BFFC82B264232D492D48FFF709
:102E3000A1FB2B49FF222846FFF78CFB17B0F0BD02
:102E40000048004038080020100000206F6E653EEA
:102E50003E3E6169723A256425252C543A25642545
:102E6000252C483A256425252C503A256425250033
:102E700074776F3E3E3E6169723A256425252C5475
:102E80003A256425252C483A256425252C503A25D9
:102E9000642525006F6E653A6169723D25642C20BA
:102EA000543D25642C20483D25642C503D2025644C
:102EB0000D0A000074776F3A6169723D25642C2019
:102EC000543D25642C20483D25642C503D2025642C
:102ED0000D0A000025730000580200200044004045
:102EE0000F01002058060020094A016882B0914273
:102EF00002D0084A914209D10A68D243D20605D4C9
:102F00000A684968009102B0FFF730BF02B070470D
:102F10000048004000440040FEE70907090E002871
:102F200004DB00F1E02080F80014704700F00F008F
:102F300000F1E02080F8141D704730380A2801D2D3
:102F40000120704700207047FEF7A8FCFFF768FCDF
:102F5000FFF7CAFBFFF792FBFFF75EFBFFF7EAFB09
:102F6000FFF720FCFFF73AFCFFF700FC00221146B8
:102F70002720FEF7F3FC2720FEF7E2FC0022114693
:102F80004720FEF7EBFC4720FEF7DAFC0022114653
:102F90002620FEF7E3FC2620FEF7D2FC1648006848
:102FA000C16841F01001C160FF2214491248FFF7C7
:102FB000D1FA13480068C16841F01001C1600F499F
:102FC000FF22FF310E48FFF7C5FA4FF6FF74642366
:102FD00003220CA10A48FFF7CDFA0BA10D48FDF71B
:102FE000DDF982B223460B490548FFF7C3FAC82032
:102FF000FEF71AFBEBE70000E806002010000020B7
:10300000A0060020363636004F4B4B4B4B4B0D0A7B
:10301000000000005802002010B500290AD00878EE
:10302000002807D005487844FDF7D8FE002801D0D5
:10303000002010BD0248784410BD00007A00000056
:10304000720000004FF04070E1EE100A7047000679
:10305000101600061016000000000000000001021B
:10306000030406070809000000000102030404002D
:103070000008000000000000000200010000100035
:10308000B03100080000002010000000E801000836
:10309000C031000810000020480F000004020008A2
:1030A0001001000043000000F8FFFFFF0040404017
:1030B000404040404040414141414140404040400B
:1030C00040404040404040404040404040050202B7
:1030D0000202020202020202020202020220202076
:1030E00020202020202020020202020202029090D2
:1030F00090909090101010101010101010101010D0
:103100001010101010101010020202020202888823
:10311000888888880808080808080808080808082F
:103120000808080808080808020202024000000017
:10313000000000000000000000000000000000008F
:10314000000000000000000000000000000000007F
:10315000000000000000000000000000000000006F
:10316000000000000000000000000000000000005F
:10317000000000000000000000000000000000004F
:10318000000000000000000000000000000000003F
:10319000000000000000000000000000000000002F
:1031A000000000000000000000000000000000001F
:1031B0000100000010000000000000000024F400E6
:04000005080001AD41
:00000001FF
