:020000040800F2
:10000000080A0020AD0100088916000849160008FA
:10001000851600080D1400086F1D00080000000080
:100020000000000000000000000000002918000887
:10003000111400080000000011170008CD1A000874
:10004000C7010008C7010008C7010008C701000870
:10005000C7010008C7010008C7010008C701000860
:10006000C7010008C7010008C7010008C701000850
:10007000C7010008C7010008C7010008C701000840
:10008000C7010008C7010008C7010008C701000830
:10009000C7010008C7010008C7010008C701000820
:1000A000C7010008C7010008C7010008C701000810
:1000B000C7010008C7010008C7010008C701000800
:1000C000C7010008C7010008C7010008C7010008F0
:1000D000C7010008C7010008311B0008C70100085C
:1000E000C7010008C7010008C701000800F002F8B6
:1000F00000F04DF80AA090E8000C82448344AAF175
:100100000107DA4501D100F042F8AFF2090EBAE872
:100110000F0013F0010F18BFFB1A43F0010318473B
:1001200088230000A8230000103A24BF78C878C1B3
:10013000FAD8520724BF30C830C144BF04680C60ED
:10014000704700000023002400250026103A28BF35
:1001500078C1FBD8520728BF30C148BF0B60704739
:10016000662902F09E80642900F0C080732900F0A7
:10017000FC83002070471FB500F00EFC0400002037
:10018000002102F001F8E0601FBD10B510BD00F0C5
:1001900007FD1146FFF7EFFF01F08AFF00F025FD94
:1001A00003B4FFF7F2FF03BC01F0F7FD09488047F5
:1001B00009480047FEE7FEE7FEE7FEE7FEE7FEE749
:1001C000FEE7FEE7FEE7FEE704480549054A064B61
:1001D00070470000D11A0008ED0000080804002054
:1001E000080A0020080600200806002070470000CA
:1001F0000FB4044910B503AA029800F0BBFB10BC71
:100200005DF814FB2C0000200FB41CB5074B06AAA8
:100210007B4469460090059800F07DFB002069460C
:1002200000F08CFB1CBC5DF814FB000029070000EB
:100230002DE9F0410E460446002020622046E16888
:10024000884730B3252805D0D4E901219047206A9A
:10025000401CF2E7E168204600278847050018D0D7
:10026000A5F14100192802D820354FF40067324625
:10027000294620462760FFF773FF40B1012804D0CC
:10028000F61D26F007060836D8E7361DD6E72846BD
:10029000DAE7206ABDE8F08170B50C460546012A10
:1002A00005D02878800600D5EA69002302E0012302
:1002B00005E05B1C934202D2E05C0028F9D1A869FA
:1002C000E618C01AA861286A184428622846AFF3C5
:1002D000008004E0D5E9012114F8010B9047B442F5
:1002E000F8D32846AFF3008070BD00002DE9F0413F
:1002F0000646002410687529314616A510D0AFF3C4
:100300000080002802DA404213A507E031688A071E
:1003100001D512A502E0490704D511A5012401E089
:10032000AFF3008000210A2206F1240709E0B0FBA8
:10033000F2FCB0FBF2F302FB1C003030785418469C
:10034000491C0028F3D123462A463046BDE8F04137
:1003500000F073B8000000002D0000002B0000002A
:100360002000000030B505460B462A4613F8014B25
:1003700012F8010B08B1A042F8D01CB1002802D03D
:100380006D1CF1E7284630BD421E12F8013F002BDC
:10039000FBD111F8013B002B02F8013BF9D170476A
:1003A0004FF000020429C0F0128010F0030C00F09E
:1003B0001B80CCF1040CBCF1020F18BF00F8012B1C
:1003C000A8BF20F8022BA1EB0C0100F00DB85FEAEA
:1003D000C17C24BF00F8012B00F8012B48BF00F8B6
:1003E000012B70474FF0000200B513469446964625
:1003F000203922BFA0E80C50A0E80C50B1F1200138
:10040000BFF4F7AF090728BFA0E80C5048BF0CC0E5
:100410005DF804EB890028BF40F8042B08BF704743
:1004200048BF20F8022B11F0804F18BF00F8012BB5
:10043000704770477047704770472DE9F0470D4689
:1004400099469246044600F124080168880604D5BE
:10045000E06921F01001216000E00120A84201DDE7
:10046000471B00E00027A1697A1902EB0900081A6E
:10047000A0612078C00602D42046AFF30080002699
:1004800008E0D4E901211AF806009047206A401CD0
:10049000761C20624E45F4DB2078C0060AD5204643
:1004A000AFF3008006E0D4E9012130209047206AB4
:1004B000401C2062381EA7F10107F4DC07E0D4E9F4
:1004C000012118F805009047206A401C2062281E70
:1004D000A5F10105F3DC2046AFF30080207800068B
:1004E00002D50220BDE8F0870120FBE770472DE927
:1004F000FF4F0C461E464FF0FF378BB0D2E900018C
:10050000DDF860800A908A46C1F30A5505B93D4678
:10051000002108464FF00000BAF1000F00F440003F
:1005200005DA00EB80004FF4400101EA50004FEA89
:100530009059B9F1010F00DDB9460A9850EA4A0016
:100540000ED044F61050A5F2FF3545432F14B8F1F4
:10055000000F1ED07542291E1EDDC9F100021CE0ED
:10056000B8F1010F4FF0000001D0302103E0F24359
:1005700005E02154401CB042FBDB30460022002144
:1005800021540B99C1F80880C1E900200FB0BDE8E3
:10059000F08FBD1B6D1CDEE74A4600DA694206A8F3
:1005A00000F084FA06AB93E8070003AB83E807008A
:1005B00050460A9900F062FB8DE80700A0F5005054
:1005C0001F3800900398002D0ADD42F21F014A46B1
:1005D0000844002303A90390684600F0CBFD09E01E
:1005E000A0F500504A461F38002303A9039068462F
:1005F00000F0D5FD8DE807000004000C03D04FF09B
:10060000FF30410800E01046B8F1000F03D000228F
:10061000009215461EE0751E05D400F0C1F9303277
:1006200062556D1EF9D5B3460122084302D000225F
:100630007F1C04E02078302801D100227F1E002A90
:10064000099784D01DE0112D07DA00F0A9F93032A6
:1006500062556D1C50EA0102F5D1084302D00098A2
:10066000C8B10EE00021681E05E0235C625C6354A3
:100670002254401E491C8142F7DBAB46A81B401E9A
:100680000990002004F80B000B98099AC0F8088024
:10069000C0E9002B7AE711264FF0000857E72DE953
:1006A000F04F88460446D21D22F0070191B0D1E9EF
:1006B0000001CDE90A0101F05CFB02460B98C00F76
:1006C00001D02D2007E02068810701D52B2002E012
:1006D000202101EAC000032A099001D0072A05DB86
:1006E00003464146204600F0A1F90BE12078800640
:1006F00001D5E06900E00620B8F1650F814606D01B
:10070000B8F1660F18D0B8F1670F70D131E0002052
:10071000B9F1110F009001DB112301E009F1010390
:100720000AAA01A90CA8FFF7E2FEDDE90C70002679
:1007300009F10105834647E001204B4600904FF048
:1007400000470AAA01A90CA8FFF7D1FEDDE90DB008
:100750000C995D46002610B909F101000D18B9EB9E
:10076000050003D4C0F1FF3609F10105A5EB09002E
:100770002BE0B9F1010F01DA4FF001090020B9F1C6
:10078000110F0090484601DD112300E003460AAA3C
:1007900001A90CA8FFF7ABFEDDE90C704D46002661
:1007A0008346207800070AD4AB4500DA5D4601A8ED
:1007B000012D04DD411911F8011C302907D04F45E6
:1007C00002DA17F1040F04DA012082460FE06D1EF1
:1007D000EEE7002F02DCED1B3E4403E0781CA8424C
:1007E00000DD7D1CB81B00F1010A4FF000472078A6
:1007F000000703D4AA4501DB4FF0FF3A0021B7F10F
:10080000004F0DF143088DF8431024D002202B2314
:10081000002F01DA7F422D230A21021EA0F10100E0
:1008200000DC5FB197FBF1FC97FBF1F201FB1C7C54
:1008300017460CF1300C08F801CDEEE7A8F10100E5
:1008400003702188090501D5452100E06521A0F14B
:10085000010800F8011C09980FA9A1EB0807FF1D6A
:1008600000B10120411901EBEA70A1693844081A6E
:10087000401EA0612078C00602D42046AFF300805D
:10088000099828B1D4E901219047206A401C2062D0
:100890002078C00622D52046AFF300801EE0002E4F
:1008A00004DBB34502DD01A8805D00E03020D4E91F
:1008B00001219047206A401C2062761CAAF10100A9
:1008C0005FEA000A0AD100F067F8C0680168405C7E
:1008D000D4E901219047206A401C2062281EA5F11E
:1008E0000105DCDC07E0D4E9012118F8010B904791
:1008F000206A401C2062381EA7F10107F3DC204665
:10090000AFF30080032011B041E6000001694A1CEA
:1009100002610878704700B58FB0CDE90131002140
:10092000059105497944CDE9031011466846FFF762
:100930007FFC0FB000BD0000E5FFFFFF0A6802F872
:10094000010B0A60704710B5436913B1AFF3008023
:1009500001E0FFF7A1FC012010BD127800F1240195
:100960000A7000224A700122EDE711684FF0FF3251
:10097000E9E70000074B70B50D467B44FFF7CBFF5E
:100980000446284600F004F910B14FF0FF3070BD66
:10099000204670BD1717000000487047C4030020B0
:1009A00030B5B0F10A024FEA900E71F100034EEA41
:1009B000817EB0EB0E0061EB91014FEA101E4EEA12
:1009C000017E10EB0E0041EB11114FEA102E4EEAA2
:1009D000016E10EB0E0041EB11214FEA104E4EEA72
:1009E000014E10EB0E0041EB1141401841F10001A6
:1009F0004FEAD00040EA41704FEAD10110EB800588
:100A00004FEA810444EA907444EB01046D1944EB0D
:100A10000404521BA3414FF0000348BF0A3200D523
:100A200030BD401C41F1000130BD00002DE9F04116
:100A30001F46044603260168072A01F4006004DB10
:100A400008B116A505E016A503E008B115A500E05C
:100A500015A521F010002060A069C01EA0610FB193
:100A6000401EA0612046AFF300804FB1D4E90121C0
:100A700038469047206A401C2062C01C206206E075
:100A8000206AFAE7D4E9012115F8010B9047761E98
:100A9000F8D22046AFF30080BDE8F0814E414E0011
:100AA0006E616E00494E4600696E66002DE9F047A2
:100AB000814616468AB0354878440DC88DE80D0049
:100AC00032487844801C03AC0DC884E80D0041F620
:100AD0009B300844372190FBF1F290FBF1F5A5F132
:100AE000800501FB12041B3C02D56442012000E09A
:100AF0000020DFF898A080460027FA44AAF1BE0A39
:100B00000EE0E0070AD03246684607EB47010123B2
:100B10000AEB810100F043FB8DE8070064107F1CA5
:100B2000002CEED1194F7F44AE3F19E0E80715D0F5
:100B300007EB04100DF1180A90E80E008AE80E0089
:100B4000C068F04201D1981908903246012306A9E5
:100B500003A800F024FB03AB83E807006D10641CBE
:100B6000002DE3D14FF0010332466946B8F1000F82
:100B700003A802D000F0FEFA01E000F010FBC9E982
:100B80000001C9F808200AB0BDE8F0876818000025
:100B9000007B00F08000704700487047A4030020ED
:100BA0007546FFF7F9FFAE4605006946534620F04B
:100BB0000700854618B020B5FFF706FBBDE82040CA
:100BC0004FF000064FF000074FF000084FF0000B09
:100BD00021F00701AC46ACE8C009ACE8C009ACE8BC
:100BE000C009ACE8C0098D46704710B50446AFF3A4
:100BF00000802046BDE81040FFF7D2BA4FF0013C1C
:100C000050F8042B51F8043B9A4221D1A2EB0C037B
:100C1000934313EACC1317D150F8042B51F8043B3B
:100C20009A4215D1A2EB0C03934313EACC130BD1D8
:100C300050F8042B51F8043B9A4209D1A2EB0C0363
:100C4000934313EACC13DBD04FF00000704700BF92
:100C5000D01A01BAB1FA81F101F0180122FA01F0BB
:100C6000CB40C1F12001DBB2C0B2C01A2CFA01F3B3
:100C7000D11A914311EAC311E6D170475FEA400CE3
:100C800008BF91F0000F4FEA8C234FEAC12243EADC
:100C900051514FEA1C5018BF00F5F0404FEA3000A8
:100CA00018BF41F000415FEA6C5C00F02980BCF1A4
:100CB000FF3F08BF40F080407047130C06BF12048E
:100CC0004FF0100C4FF0000C130E04BF12020CF189
:100CD000080C130F04BF12010CF1040C930F04BF96
:100CE00092000CF1020CD30F04BF52000CF1010C66
:100CF00011464FF00002A0F11F00A0EB0C0070475E
:100D000011F0004F08BF704731F000413FF4D5AFFC
:100D10000B0C06BF09044FF0100C4FF0000C0B0E2B
:100D200004BF09020CF1080C0B0F04BF09010CF100
:100D3000040C8B0F04BF89000CF1020CCB0F04BF15
:100D400049000CF1010CCCF12003A0EB0C0022FABD
:100D500003F302FA0CF241EA030100F101007047CB
:100D600020F07F4C80EA030023F07F47ACEB0703C1
:100D700003F57C5300F0004003F1FF032DE98049A7
:100D80004FEA154B09B44FEA144325EA0B4E24EA07
:100D900003480FF2042606EB132749083E785FEA62
:100DA000320203FB0667C7F5000707FB06F64FEAAA
:100DB00054374FEAD64606F1020607FB066CCCF123
:100DC000005C4FEA1C472CEA074C07FB06F40CFBBF
:100DD00006F504EB15464FEA961634BF00204FF097
:100DE00000404FEAD13706FB07FC4FEA1C4C0CFBD6
:100DF0000BF7D21B03FB0CF761EB07010CFB0EF7A3
:100E0000B0EB074072EB17420CFB08F734BFA2EBC4
:100E10000742B2EB074261EB17414FEA0C444FEA3D
:100E2000910706FB07FC4FEA1C4C0CFB0BF7B0EBE1
:100E3000C74072EB573203FB0CF734BFA2EBC7423B
:100E4000B2EBC74261EB57310CFB0EF7B0EBC700BA
:100E500072EB57720CFB08F734BFA2EBC702B2EB80
:100E6000C70261EB5771039F4FEA816141EA92111A
:100E700004EBCC044FEAD1374FEA826206FB07FC51
:100E800042EA90124FEA80604FEA1C4C0CFB0BF7D1
:100E9000D21B03FB0CF761EB07010CFB0EF7B0EB69
:100EA000074072EB17420CFB08F734BFA2EB074276
:100EB000B2EB074261EB17414FEA8C554FEA9107BD
:100EC00004EB9C2406FB07FC4FEA1C4C0CFB0BF7C5
:100ED000B0EBC74072EB573203FB0CF734BFA2EB09
:100EE000C742B2EBC74261EB57310CFB0EF7B0EBD8
:100EF000C70072EB57720CFB08F734BFA2EBC702B6
:100F0000B2EBC70261EB577115EB4C254FEA8161DB
:100F100041EA92114FEA82624FEAD13742EA9012D7
:100F200006FB07FC44F100044FEA80604FEA1C4CCA
:100F30000CFB0BF7D21B03FB0CF761EB07010CFB5F
:100F40000EF7B0EB074072EB17420CFB08F734BF0B
:100F5000A2EB0742B2EB074261EB174115EB1C1500
:100F60004FEA813141EA92414FEA823242EA9042AD
:100F70004FEA80304FEA0C7644F1000448EA03431C
:100F80004EEA0B484FF0000EB2EB080C71EB030772
:100F900024BF624639464EEB0E0E4FF0000B001890
:100FA000524149414BEB0B0BB2EB080C71EB0307C1
:100FB0007BF1000B24BF624639464EEB0E0E4FF01C
:100FC000000B0018524149414BEB0B0BB2EB080CE4
:100FD00071EB03077BF1000B24BF624639464EEBF1
:100FE0000E0E51EA020718BF46F0010616EB0E7608
:100FF00055F1000254F1000103D5BDE88901BDE8B7
:101000000088BDE88901BDE80048B619524141EBAE
:101010000101A3F10103704780807F7E7D7C7B7A94
:101020007978777676757473727171706F6E6E6D94
:101030006C6C6B6A6A69686867666665646463633A
:1010400062616160605F5F5E5E5D5D5C5C5B5B5AC0
:101050005A5959585857575656555555545453532D
:1010600052525251515050504F4F4F4E4E4D4D4D88
:101070004C4C4C4B4B4B4A4A4A49494948484847D3
:101080004747474646464545454444444443434311
:101090004342424242414141002B9C4630D47700BA
:1010A0002BD01CB54FEA370703B44FF010004FF0B8
:1010B0001001BAF1000F06D0BCF1000FDCBF40F008
:1010C000080040F008014FF000000FBCBDE81040E0
:1010D0000BF1010BBBF1010F08BF5FEA170722BF3D
:1010E00012F1010211F101014FF0004143F100033F
:1010F00000F0004043EA00007047F9D35708D0E7FA
:1011000046EA064613F1400F4FEA16461FDD13F17B
:10111000200FDFBF16430A46002120335B42BED0BA
:10112000C3F1200746EA064602FA07F74FEA1646D9
:1011300046EA0706C3F1200722FA03F201FA07F78D
:1011400021FA03F14FF0000342EA0702A7E746EA5B
:10115000020646EA06464FEA164646EA0106BCBFC4
:1011600046EA0646360C4FF000034FF000024FF0FF
:10117000000194E72DE9804C9A46934670B491E8BB
:10118000380007C831EA400C48BF34EA430C03D5A5
:10119000FFF7E6FDFFF780FFF0BCBDE8008C2DE90E
:1011A000804C9A46934670B491E8380007C810F016
:1011B000804F08BF13F0804F03D100F005F8FFF710
:1011C0006BFFF0BCBDE8008C20F07F4780EA030095
:1011D00023F07F4C07EB0C03A3F57C5300F0004099
:1011E000A3F1FE0392F0000F00F0B38095F0000F22
:1011F00000F077802DE901494FEA11404FEA14468B
:1012000021EA004800FB06FC24EA064708FB06F634
:1012100007FB08F800FB07F718EB06484CEB164CE9
:101220004FEA124B18EB07484FEA15464CEB1740B4
:1012300022EA0B4E0BFB06FC25EA06470EFB06F6E0
:1012400007FB0EFE0BFB07F71EEB064E4CEB164C96
:101250004FF000061EEB074E4CEB174B18EB0B083C
:1012600040F1000018EB0E0B58EB000840F10000B5
:101270008F1A4FF000013CBFC943661B14BFB5EB8A
:10128000040C00213CBFC943F61B4FEA17444EEA49
:101290008E0E27EA04454FEA1C4704FB07622CEA3E
:1012A000074C05FB07F70CFB05F604FB0CFC16EBE3
:1012B000074642EB174216EB0C4642EB1C421BEB77
:1012C000060658EB0202414146EA9E0601D5BDE8FA
:1012D0000189B619524141EB0101A3F10103BDE8B7
:1012E00001894FEA14454FEA114724EA054621EAED
:1012F000074C05FB07F406FB07F70CFB06F105FBA3
:101300000CFC11EB074144EB17444FEA124711EB79
:101310000C4144EB1C4422EA074C05FB07F206FB98
:1013200007F70CFB06F605FB0CFC16EB074642EB39
:10133000174216EB0C4642EB1C456A1854F10001AB
:1013400048BF7047B619524141EB0101A3F10103B7
:10135000704795F0000F37D04FEA11424FEA14471B
:1013600021EA024624EA074C02FB07F106FB07F7D5
:101370000CFB06F402FB0CFC14EB074441EB174199
:101380004FEA154714EB0C4441EB1C4125EA074C8E
:1013900002FB07F506FB07F70CFB06F602FB0CFC4D
:1013A00016EB074645EB174516EB0C4645EB1C4282
:1013B000121951F1000148BF7047B619524141EB73
:1013C0000101A3F1010370474FEA14454FEA1147A9
:1013D00024EA054621EA074C05FB07F106FB07F75F
:1013E0000CFB06F24FF0000605FB0CFC12EB07426B
:1013F00041EB174112EB0C4251EB1C4148BF7047C7
:10140000921841EB0101A3F10103704700BFFEE711
:1014100070472DE9F04102460025002600200023F8
:101420000024002791F803C00CF00F0591F803C0C9
:101430000CF0100CBCF1000F03D091F802C04CEA84
:10144000050591F800C0BCF1000F31D014680020F0
:101450002BE04FF0010C0CFA00F3B1F800C00CEADD
:1014600003069E4220D183004FF00F0C0CFA03F7C5
:10147000BC4305FA03FC4CEA040491F803C0BCF138
:10148000280F06D14FF0010C0CFA00FCC2F814C072
:101490000AE091F803C0BCF1480F05D14FF0010CF0
:1014A0000CFA00FCC2F810C0401C0828D1D314600C
:1014B000B1F800C0BCF1FF0F34DD546800202EE00D
:1014C00000F1080C4FF0010808FA0CF3B1F800C065
:1014D0000CEA03069E4221D183004FF00F0C0CFA58
:1014E00003F7BC4305FA03FC4CEA040491F803C07B
:1014F000BCF1280F05D100F1080C08FA0CF8C2F86D
:10150000148091F803C0BCF1480F07D100F1080C1A
:101510004FF0010808FA0CF8C2F81080401C0828A7
:10152000CED35460BDE8F0814161704701617047DE
:1015300070B58EB004460D46164676B1342101A82A
:10154000FEF750FF2B4622460CA101A8FEF75CFED9
:1015500001A91048FEF718FF0DE0342101A8FEF79D
:1015600041FF2B4622460CA101A8FEF74DFE01A922
:101570000848FEF709FF0EB070BD00005C2225731D
:101580005C223A7B5C2276616C75655C223A25644C
:101590007D000000140200205C2225735C223A7B4F
:1015A0005C2276616C75655C223A25645C7D000086
:1015B0002DE9F04190B004460D469046B8F1000F79
:1015C00012D0342103A8FEF70DFF284600F0F8FDE5
:1015D0002246CDE900010FA103A8FEF715FE03A9DD
:1015E0001248FEF7D1FE11E0342103A8FEF7FAFEFF
:1015F000284600F0E5FD2246CDE900010CA103A834
:10160000FEF702FE03A90948FEF7BEFE10B0BDE8D2
:10161000F08100005C2225735C223A7B5C227661BB
:101620006C75655C223A25667D000000140200207E
:101630005C2225735C223A7B5C2276616C75655C6A
:10164000223A25665C7D000000BFFEE708B5012157
:10165000102000F06FF84FF40050ADF8000010209B
:101660008DF8030003208DF8020069460448FFF757
:10167000D0FE4FF400510248FFF758FF08BD0000AC
:101680000010014000BFFEE77047000070B5002168
:1016900000230F22C47804B3154C246804F4E064DA
:1016A000C4F5E064210AC1F10403CA40447804FA95
:1016B00003F184781440214309010E4C0678A155AA
:1016C000047804F01F050124AC4005786D11AD00CD
:1016D00005F1E025C5F8004109E0047804F01F0594
:1016E0000124AC40044D0678761145F8264070BDC3
:1016F0000CED00E000E400E080E100E0024901437D
:10170000024A1160704700000000FA050CED00E08D
:101710007047000029B1064AD2690243044BDA61DE
:1017200004E0034AD2698243014BDA61704700004A
:101730000010024029B1064A92690243044B9A61A3
:1017400004E0034A92698243014B9A6170470000AA
:101750000010024030B500210022002400232D4D4E
:101760006D6805F00C0121B1042905D0082923D1A9
:1017700005E0294D056022E0274D05601FE0254D5D
:101780006D6805F47012234D6D6805F480340225F0
:1017900005EB92421CB9214D554305600BE01D4DF0
:1017A0006D6805F400351DB11C4D5543056002E020
:1017B000194D5543056002E0174D056000BF00BF9D
:1017C000144D6D6805F0F0010909154D6B5C056855
:1017D000DD4045600F4D6D6805F4E061090A104D6C
:1017E0006B5C4568DD4085600A4D6D6805F46051AD
:1017F000C90A0B4D6B5C4568DD40C560054D6D68E1
:1018000005F44041890B074D6B5CC568B5FBF3F5EA
:10181000056130BD0010024000127A0000093D0051
:1018200014000020240000207047000010B54FF481
:10183000C8710C48FEF7B4FD0B490A48FEF7E4FCFA
:101840000A490848FEF7A0FD09A10648FEF79CFDDD
:101850004FF4C8710548FEF7A3FD07A1014800F049
:101860001DFB10BD84000020342400081402002059
:101870007D7D222C302C300073756363657373009B
:1018800010B5012202213BA0FFF752FEFFF7CEFF69
:10189000C82000F0DDFAFFF7C9FF0122022136A0BF
:1018A000FFF746FEFFF7C2FFC82000F0D1FAFFF7AE
:1018B000BDFF0122324933A0FFF77AFEFFF7B6FFE2
:1018C000C82000F0C5FAFFF7B1FF01222C492FA074
:1018D000FFF76EFEFFF7AAFFC82000F0B9FAFFF786
:1018E000A5FF012226492BA0FFF762FEFFF79EFF0E
:1018F000C82000F0ADFAFFF799FF0122204927A088
:10190000FFF756FEFFF792FFC82000F0A1FAFFF79D
:101910008DFF0122022123A0FFF70AFEFFF786FFB9
:10192000C82000F095FAFFF781FF012202211EA0D6
:10193000FFF7FEFDFFF77AFFC82000F089FAFFF7F6
:1019400075FF01220E4919A0FFF732FEFFF76EFF67
:10195000C82000F07DFAFFF769FF0122084915A0B1
:10196000FFF726FEFFF762FFC82000F071FAFFF7CD
:101970005DFF10BD46616E004665656400000000B5
:1019800066660640466F6F6400000000466F6F6435
:101990005F4600005761746572000000576174650E
:1019A000725F460063617400646F670074656D70F8
:1019B0000000000074656D705F66000010B500F0F7
:1019C00001F810BD0CB5002001900090334800686C
:1019D00040F480303149086000BF3048006800F4AE
:1019E000003000900198401C0190009818B90198AF
:1019F000B0F5A06FF1D12948006800F4003010B1B3
:101A00000120009001E0002000900098012843D1BF
:101A10002348006840F0100021490860084600682B
:101A200020F0030008600846006840F002000860EB
:101A30001A484068194948600846406848600846A6
:101A4000406840F4806048600846406820F47C109C
:101A500048600846406840F4E8104860084600685E
:101A600040F08070086000BF0C48006800F0007013
:101A70000028F9D00948406820F003000749486071
:101A80000846406840F00200486000BF03484068D4
:101A900000F00C000828F9D10CBD00000010024035
:101AA00000200240042808D14FF0E021096941F0EC
:101AB00004014FF0E022116107E04FF0E0210969D5
:101AC00021F004014FF0E0221161704770470000DF
:101AD00010B51348006840F001001149086008463D
:101AE0004068104908400E494860084600680E49A1
:101AF00008400B4908600846006820F48020086010
:101B00000846406820F4FE0048604FF41F008860DB
:101B1000FFF754FF4FF000600449086010BD00005B
:101B2000001002400000FFF8FFFFF6FE08ED00E0A5
:101B300070B5002540F22551174800F057F848B31A
:101B4000154800F00FF9C4B21448008800F40040B2
:101B5000D0B9124800884F2813DA11480F49098874
:101B600044540E480088401C0C4908800A2C0BD1B4
:101B70006D1C022D08D10846008840F40040088002
:101B800002E000200549088040F22551024800F09B
:101B900012F800BF70BD000000440040300000207B
:101BA0003400002001F40072B2F5007F00D100BFC4
:101BB000CA430280704710B50022002340F66A1421
:101BC000A14200D100BF0A1201249440A3B2DC4319
:101BD000048010BD21B1828942F40052828104E068
:101BE00082894DF6FF731A408281704770B50246B4
:101BF000002400230025002040F66A16B14200D1DF
:101C000000BFC1F3421501F01F03012606FA03F3DA
:101C1000012D02D19689334006E0022D02D1168AA9
:101C2000334001E0968A33400C12012606FA04F490
:101C30001688344013B10CB1012000E0002070BDC3
:101C4000F0B50346002400260025002040F66A1760
:101C5000B94200D100BF1846C1F3421401F01F067B
:101C6000012707FA06F5012C01D10C3004E0022C03
:101C700001D1103000E014301AB107682F4307601B
:101C800002E00768AF430760F0BD00002DE9F047B0
:101C900086B005460E460024A24600BFA146002796
:101CA000B08900B100BF2F462C8A4CF6FF7004406B
:101CB000F08804432C82AC894EF6F3100440B088BF
:101CC00031890843718908430443AC81AC8A4FF6DB
:101CD000FF400440B0890443AC8201A8FFF73AFDFD
:101CE0001F48874202D1DDF810A001E0DDF80CA00A
:101CF000A88900F4004040B10AEBCA0000EB0A10CA
:101D000031684900B0FBF1F807E00AEBCA0000EBCC
:101D10000A1031688900B0FBF1F86420B8FBF0F0DC
:101D200004012009642101FB1089A88900F4004006
:101D300040B1322000EBC900B0FBF1F000F0070029
:101D4000044308E0322000EB09106421B0FBF1F0FD
:101D500000F00F0004432C8106B0BDE8F0870000BE
:101D60000038014001468888C0F30800704700BF72
:101D7000FEE7490050EAC12018BF04204A0D18BFF1
:101D800040F0010040F2FF72B2EB515F08BF40F03B
:101D90000200012808BF05207047014600BF7047B8
:101DA00008B501210420FFF7C5FC0120ADF80000B3
:101DB00010208DF8030003208DF8020069460448C6
:101DC000FFF727FB01210248FFF7B0FB08BD000029
:101DD0000008014010B501210148FFF7A5FB10BD27
:101DE0000008014010B501210148FFF79FFB10BD1D
:101DF0000008014070B504460D4629462046FEF70E
:101E0000B1FA08B1012070BD0020FCE710B56FF0F9
:101E10000400FFF747FE0A4800680A49B0FBF1F0EA
:101E2000094908700846007800EB4001C1EBC0107A
:101E30004FF6FF7101EAC0000449088010BD0000A0
:101E40000000002000127A00280000202A00002054
:101E50000146114A12884A434FF0E0235A6100229A
:101E60009A611A46126942F001021A6100BF4FF0EE
:101E7000E022106900F001021AB100F48032002A59
:101E8000F5D04FF0E022126922F001024FF0E0237A
:101E90001A6100229A6170472A00002070B504463A
:101EA0000D460BE050210B48FEF77AFA21460AA0B6
:101EB000FEF79EF94FF47A70FFF7CAFF29460548EE
:101EC000FFF798FF0028EDD050210248FEF768FA8E
:101ED000002070BD3400002025730D0A00000000B2
:101EE00070B504460D4621460648FFF783FF0128DA
:101EF00006D129460348FFF77DFF012800D170BDB8
:101F00000020FCE73400002010B500F007F8502155
:101F10000148FEF745FA10BD3400002010B509A1B4
:101F20000AA0FFF7DDFF012802D1FFF75BFF07E002
:101F300009A106A0FFF7D4FF012801D1FFF74AFF4E
:101F4000012010BD66616C73650000004C69676814
:101F500074537769746368007472756500000000DB
:101F600010B500F077F80FA10FA0FFF797FF0DA1B4
:101F700010A0FFF793FF0BA112A0FFF78FFF09A19D
:101F80001848FFF78BFF07A117A0FFF787FF05A1F0
:101F90001F48FFF783FF03A11EA0FFF77FFF00206C
:101FA00010BD00004F4B000041542B43574D4F4490
:101FB000453D310041542B4357444843503D312C5B
:101FC0003100000041542B43574A41503D224334D5
:101FD000313343343133222C2243343133433431CF
:101FE000332200003C23000841542B4D51545443EC
:101FF0004F4E4E3D302C223138332E3233302E347A
:10200000302E3936222C313838332C310000000084
:10201000EC23000841542B4D5154545355423D304C
:102020002C22247379732F7854394F32704F3261D8
:10203000492F50657453797374656D2F7468696E98
:10204000672F70726F70657274792F736574222CAC
:102050003100000010B550210848FEF7A1F908A092
:10206000FEF7C6F800BF09A10448FFF7C3FE002829
:10207000F9D050210148FEF793F910BD340000203B
:1020800041542B5253540D0A000000004F4B0D0ACF
:102090000000000000BF054A128802F04002002A3A
:1020A000F9D0C2B2014B1B1D1A807047004400409A
:1020B0004FF4A060FFF722FB4FF4E13000F00EF880
:1020C000FFF7A4FEFFF7C2FAFFF76AFEFFF748FF2B
:1020D00003E0FFF7D5FBFFF717FFFAE710B586B06F
:1020E000044601214804FFF715FB01210420FFF7F6
:1020F00021FB0420ADF8140018208DF817000320F0
:102100008DF8160005A91E48FFF783F90820ADF8E1
:10211000140004208DF8170005A91948FFF779F974
:1021200001940020ADF80800ADF80A00ADF80C00ED
:10213000ADF810000C20ADF80E0001A91148FFF712
:10214000A5FD26208DF8000001208DF8010000205B
:102150008DF8020001208DF803006846FFF796FA1B
:10216000012240F225510748FFF76AFD0121054889
:10217000FFF730FD40210348FFF714FD06B010BD06
:10218000000801400044004010B500290AD008783A
:10219000002807D005487844FEF730FD002801D01C
:1021A000002010BD0248784410BD0000320300003A
:1021B0002A0300000808A0F500114FEA310170471A
:1021C00043004FEAD30C4FEA3C0C43401FBF40078B
:1021D0000CF1605113F0FE4F70471CF0006F03D1FB
:1021E00000200CF0004170470CF0004343EA5070AF
:1021F00010B540EACC0000F00EF800BF00000092DD
:102200004FEA0001FFF7D6BF4FF000414FF000004A
:10221000A1F5002170470EF1020E2EF0030E5EF8BC
:10222000044B244204D44FEA4102B2F17F4F11D84B
:102230004FEA4003B3F17F4F0CD80ED14FEAD07C68
:10224000B2F17F4F0CEB4C0C0CF1020C08BF4CEBC5
:10225000D17C04E04FF0080C01E04FEAD17C0CEB9C
:102260004C0324FA03F404F00704B4F1040C06D27E
:102270000EEB840CBDE810404CF0010C6047DFE829
:102280000CF0070802024FF00040A0F5800010BDDE
:102290000846420018BFD2F1807288BF00F00040AB
:1022A00010BDFEF7FCB9000002400000000000A0D5
:1022B0000000000005400000000000C80000000011
:1022C0000C4000000000409C00000000194000008D
:1022D0000020BCBE0000000034400000BFC91B8EBF
:1022E00000000004B5400000504BCFD06607E2CF9D
:1022F000010000006C4100003E8251AADFEEA734CD
:1023000001000000D9420000DCB5A0E23A301F977E
:10231000FFFFFFFFB4450000FD25A0C8E9A3C14FA2
:10232000FFFFFFFFFF3F00000000008000000000F3
:10233000FF3F0000000000800000000041542B4DD2
:10234000515454555345524346473D302C312C226D
:1023500050657453797374656D222C227854394F0B
:1023600032704F326149222C2276657273696F6E2A
:102370003D323031382D31302D3331267265733D89
:1023800070726F64756374732532467854394F32B6
:10239000704F3261492532466465766963657325FD
:1023A00032465065742665743D31373739333338DA
:1023B000333031266D6574686F643D6D6435267306
:1023C00069676E3D474A48377851672532427179CF
:1023D00035597A36317356324846494125334425BA
:1023E0003344222C302C302C2222000041542B4D1F
:1023F0005154545355423D302C22247379732F7815
:1024000054394F32704F3261492F5065745379738C
:1024100074656D2F7468696E672F70726F70657266
:1024200074792F706F73742F7265706C79222C31F0
:102430000000000041542B4D5154545055423D3042
:102440002C22247379732F7854394F32704F3261B4
:10245000492F50657453797374656D2F7468696E74
:10246000672F70726F70657274792F706F7374223A
:102470002C227B5C2269645C223A5C223132335C20
:10248000225C2C5C2276657273696F6E5C223A5C0A
:1024900022312E305C225C2C5C22706172616D7383
:1024A0005C223A7B00000000E424000800000020C9
:1024B000340000002801000818250008340000201E
:1024C000D4090000440100081C0000004300000083
:1024D000F8FFFFFF0C0000000E0000000F000000DE
:1024E0002E00000000A24A040000000000000000CE
:1024F00001020304060708090000000001020304AA
:10250000010203040607080902040608000000008F
:082510000000000000000000C3
:04000005080000ED02
:00000001FF
